{"abi":[{"type":"constructor","inputs":[{"name":"_bridge_address","type":"address","internalType":"address"}],"stateMutability":"nonpayable"},{"type":"function","name":"assign","inputs":[{"name":"tokenId","type":"string","internalType":"string"},{"name":"receiver_account","type":"address","internalType":"address"},{"name":"assetAttribute","type":"uint256","internalType":"uint256"}],"outputs":[{"name":"success","type":"bool","internalType":"bool"}],"stateMutability":"nonpayable"},{"type":"function","name":"bridge_address","inputs":[],"outputs":[{"name":"","type":"address","internalType":"address"}],"stateMutability":"view"},{"type":"function","name":"burn","inputs":[{"name":"tokenId","type":"string","internalType":"string"},{"name":"assetAttribute","type":"uint256","internalType":"uint256"}],"outputs":[{"name":"success","type":"bool","internalType":"bool"}],"stateMutability":"nonpayable"},{"type":"function","name":"getAllAssetsIDs","inputs":[],"outputs":[{"name":"","type":"string[]","internalType":"string[]"}],"stateMutability":"view"},{"type":"function","name":"getToken","inputs":[{"name":"tokenId","type":"string","internalType":"string"}],"outputs":[{"name":"token","type":"tuple","internalType":"struct Token","components":[{"name":"contractName","type":"string","internalType":"string"},{"name":"contractAddress","type":"address","internalType":"address"},{"name":"tokenType","type":"uint8","internalType":"enum TokenType"},{"name":"tokenId","type":"string","internalType":"string"},{"name":"referenceId","type":"string","internalType":"string"},{"name":"owner","type":"address","internalType":"address"},{"name":"amount","type":"uint256","internalType":"uint256"}]}],"stateMutability":"view"},{"type":"function","name":"lock","inputs":[{"name":"tokenId","type":"string","internalType":"string"},{"name":"assetAttribute","type":"uint256","internalType":"uint256"}],"outputs":[{"name":"success","type":"bool","internalType":"bool"}],"stateMutability":"nonpayable"},{"type":"function","name":"mint","inputs":[{"name":"tokenId","type":"string","internalType":"string"},{"name":"assetAttribute","type":"uint256","internalType":"uint256"}],"outputs":[{"name":"success","type":"bool","internalType":"bool"}],"stateMutability":"nonpayable"},{"type":"function","name":"onERC721Received","inputs":[{"name":"","type":"address","internalType":"address"},{"name":"","type":"address","internalType":"address"},{"name":"","type":"uint256","internalType":"uint256"},{"name":"","type":"bytes","internalType":"bytes"}],"outputs":[{"name":"","type":"bytes4","internalType":"bytes4"}],"stateMutability":"pure"},{"type":"function","name":"owner","inputs":[],"outputs":[{"name":"","type":"address","internalType":"address"}],"stateMutability":"view"},{"type":"function","name":"renounceOwnership","inputs":[],"outputs":[],"stateMutability":"nonpayable"},{"type":"function","name":"tokens","inputs":[{"name":"","type":"string","internalType":"string"}],"outputs":[{"name":"contractName","type":"string","internalType":"string"},{"name":"contractAddress","type":"address","internalType":"address"},{"name":"tokenType","type":"uint8","internalType":"enum TokenType"},{"name":"tokenId","type":"string","internalType":"string"},{"name":"referenceId","type":"string","internalType":"string"},{"name":"owner","type":"address","internalType":"address"},{"name":"amount","type":"uint256","internalType":"uint256"}],"stateMutability":"view"},{"type":"function","name":"tokensInteractions","inputs":[{"name":"","type":"string","internalType":"string"},{"name":"","type":"uint8","internalType":"enum InteractionType"}],"outputs":[{"name":"interactionType","type":"uint8","internalType":"enum InteractionType"},{"name":"available","type":"bool","internalType":"bool"}],"stateMutability":"view"},{"type":"function","name":"transferOwnership","inputs":[{"name":"newOwner","type":"address","internalType":"address"}],"outputs":[],"stateMutability":"nonpayable"},{"type":"function","name":"unlock","inputs":[{"name":"tokenId","type":"string","internalType":"string"},{"name":"assetAttribute","type":"uint256","internalType":"uint256"}],"outputs":[{"name":"success","type":"bool","internalType":"bool"}],"stateMutability":"nonpayable"},{"type":"function","name":"unwrap","inputs":[{"name":"tokenId","type":"string","internalType":"string"}],"outputs":[{"name":"success","type":"bool","internalType":"bool"}],"stateMutability":"nonpayable"},{"type":"function","name":"wrap","inputs":[{"name":"contractName","type":"string","internalType":"string"},{"name":"contractAddress","type":"address","internalType":"address"},{"name":"tokenType","type":"uint8","internalType":"enum TokenType"},{"name":"tokenId","type":"string","internalType":"string"},{"name":"referenceId","type":"string","internalType":"string"},{"name":"owner","type":"address","internalType":"address"}],"outputs":[{"name":"wrapSuccess","type":"bool","internalType":"bool"}],"stateMutability":"nonpayable"},{"type":"function","name":"wrap","inputs":[{"name":"contractName","type":"string","internalType":"string"},{"name":"contractAddress","type":"address","internalType":"address"},{"name":"tokenType","type":"uint8","internalType":"enum TokenType"},{"name":"tokenId","type":"string","internalType":"string"},{"name":"referenceId","type":"string","internalType":"string"},{"name":"owner","type":"address","internalType":"address"},{"name":"interactions","type":"tuple[]","internalType":"struct InteractionSignature[]","components":[{"name":"interactionType","type":"uint8","internalType":"enum InteractionType"},{"name":"functionsSignature","type":"string[]","internalType":"string[]"},{"name":"variables","type":"uint8[][]","internalType":"enum AssetParameterIdentifier[][]"},{"name":"available","type":"bool","internalType":"bool"}]}],"outputs":[{"name":"wrapSuccess","type":"bool","internalType":"bool"}],"stateMutability":"nonpayable"},{"type":"event","name":"Approve","inputs":[{"name":"tokenId","type":"string","indexed":true,"internalType":"string"},{"name":"spender","type":"address","indexed":false,"internalType":"address"},{"name":"amount","type":"uint256","indexed":false,"internalType":"uint256"}],"anonymous":false},{"type":"event","name":"Assign","inputs":[{"name":"tokenId","type":"string","indexed":true,"internalType":"string"},{"name":"receiver_account","type":"address","indexed":false,"internalType":"address"},{"name":"amount","type":"uint256","indexed":false,"internalType":"uint256"}],"anonymous":false},{"type":"event","name":"Burn","inputs":[{"name":"tokenId","type":"string","indexed":true,"internalType":"string"},{"name":"amount","type":"uint256","indexed":false,"internalType":"uint256"}],"anonymous":false},{"type":"event","name":"Changed","inputs":[{"name":"id","type":"string","indexed":true,"internalType":"string"},{"name":"value","type":"bytes[]","indexed":false,"internalType":"bytes[]"}],"anonymous":false},{"type":"event","name":"Lock","inputs":[{"name":"tokenId","type":"string","indexed":true,"internalType":"string"},{"name":"amount","type":"uint256","indexed":false,"internalType":"uint256"}],"anonymous":false},{"type":"event","name":"Mint","inputs":[{"name":"tokenId","type":"string","indexed":true,"internalType":"string"},{"name":"amount","type":"uint256","indexed":false,"internalType":"uint256"}],"anonymous":false},{"type":"event","name":"OwnershipTransferred","inputs":[{"name":"previousOwner","type":"address","indexed":true,"internalType":"address"},{"name":"newOwner","type":"address","indexed":true,"internalType":"address"}],"anonymous":false},{"type":"event","name":"Unlock","inputs":[{"name":"tokenId","type":"string","indexed":true,"internalType":"string"},{"name":"amount","type":"uint256","indexed":false,"internalType":"uint256"}],"anonymous":false},{"type":"event","name":"Unwrap","inputs":[{"name":"tokenId","type":"string","indexed":true,"internalType":"string"}],"anonymous":false},{"type":"event","name":"Wrap","inputs":[{"name":"tokenId","type":"string","indexed":true,"internalType":"string"},{"name":"contractName","type":"string","indexed":false,"internalType":"string"},{"name":"contractAddress","type":"address","indexed":false,"internalType":"address"},{"name":"tokenType","type":"uint8","indexed":false,"internalType":"enum TokenType"},{"name":"owner","type":"address","indexed":false,"internalType":"address"}],"anonymous":false},{"type":"error","name":"InsuficientAmountLocked","inputs":[{"name":"tokenId","type":"string","internalType":"string"},{"name":"amount","type":"uint256","internalType":"uint256"}]},{"type":"error","name":"OwnableInvalidOwner","inputs":[{"name":"owner","type":"address","internalType":"address"}]},{"type":"error","name":"OwnableUnauthorizedAccount","inputs":[{"name":"account","type":"address","internalType":"address"}]},{"type":"error","name":"TokenAlreadyLocked","inputs":[{"name":"tokenId","type":"string","internalType":"string"}]},{"type":"error","name":"TokenAlreadyWrapped","inputs":[{"name":"tokenId","type":"string","internalType":"string"}]},{"type":"error","name":"TokenLocked","inputs":[{"name":"tokenId","type":"string","internalType":"string"}]},{"type":"error","name":"TokenNotAvailable","inputs":[{"name":"tokenId","type":"string","internalType":"string"}]},{"type":"error","name":"TokenNotLocked","inputs":[{"name":"tokenId","type":"string","internalType":"string"}]},{"type":"error","name":"TokenNotSupported","inputs":[{"name":"tokenId","type":"string","internalType":"string"}]}],"bytecode":{"object":"0x60806040523480156200001157600080fd5b5060405162003b8238038062003b828339810160408190526200003491620000e6565b806001600160a01b0381166200006457604051631e4fbdf760e01b81526000600482015260240160405180910390fd5b6200006f8162000096565b50600480546001600160a01b0319166001600160a01b039290921691909117905562000118565b600080546001600160a01b038381166001600160a01b0319831681178455604051919092169283917f8be0079c531659141344cd1fd0a4f28419497f9722a3daafe3b4186f6b6457e09190a35050565b600060208284031215620000f957600080fd5b81516001600160a01b03811681146200011157600080fd5b9392505050565b613a5a80620001286000396000f3fe608060405234801561001057600080fd5b506004361061011b5760003560e01c80638da5cb5b116100b2578063d9cf884c11610081578063ea8f547f11610066578063ea8f547f146102c8578063f272660b1461031f578063f2fde38b1461033257600080fd5b8063d9cf884c146102a2578063e1efb596146102b557600080fd5b80638da5cb5b1461024b578063a1bc17c51461025c578063b48272cc1461026f578063c1733f681461028257600080fd5b80634534ba17116100ee5780634534ba17146102065780635137b8a7146102195780636a0876e01461022e578063715018a61461024157600080fd5b806304c2320b14610120578063056b01ce1461014f5780631255c18914610172578063150b7a021461019d575b600080fd5b61013361012e366004612c16565b610345565b6040516101469796959493929190612cc5565b60405180910390f35b61016261015d366004612d31565b61053e565b6040519015158152602001610146565b600454610185906001600160a01b031681565b6040516001600160a01b039091168152602001610146565b6101d56101ab366004612d8d565b7f150b7a020000000000000000000000000000000000000000000000000000000095945050505050565b6040517fffffffff000000000000000000000000000000000000000000000000000000009091168152602001610146565b610162610214366004612e28565b610676565b61022161099d565b6040516101469190612ed4565b61016261023c366004612ef6565b610a76565b610249610b5b565b005b6000546001600160a01b0316610185565b61016261026a366004612c16565b610b6f565b61016261027d366004612d31565b610ea1565b610295610290366004612c16565b61124f565b6040516101469190612faf565b6101626102b0366004612d31565b6114d3565b6101626102c3366004612d31565b611908565b6103116102d6366004613066565b8151602081840181018051600282529282019482019490942091909352909152600090815260409020805460039091015460ff918216911682565b6040516101469291906130c4565b61016261032d36600461338e565b611b62565b61024961034036600461346d565b611e93565b805160208183018101805160018252928201919093012091528054819061036b90613488565b80601f016020809104026020016040519081016040528092919081815260200182805461039790613488565b80156103e45780601f106103b9576101008083540402835291602001916103e4565b820191906000526020600020905b8154815290600101906020018083116103c757829003601f168201915b50505050600183015460028401805493946001600160a01b03831694600160a01b90930460ff1693509161041790613488565b80601f016020809104026020016040519081016040528092919081815260200182805461044390613488565b80156104905780601f1061046557610100808354040283529160200191610490565b820191906000526020600020905b81548152906001019060200180831161047357829003601f168201915b5050505050908060030180546104a590613488565b80601f01602080910402602001604051908101604052809291908181526020018280546104d190613488565b801561051e5780601f106104f35761010080835404028352916020019161051e565b820191906000526020600020905b81548152906001019060200180831161050157829003601f168201915b50505050600483015460059093015491926001600160a01b031691905087565b6000610548611eea565b60006001600160a01b031660018460405161056391906134c2565b908152604051908190036020019020600101546001600160a01b0316036105a8578260405163c0bab25f60e01b815260040161059f91906134de565b60405180910390fd5b6105b483600084611f30565b6106005760405162461bcd60e51b815260206004820152601660248201527f6d696e742061737365742063616c6c206661696c656400000000000000000000604482015260640161059f565b8160018460405161061191906134c2565b908152604051908190036020018120600501919091556106329084906134c2565b604051908190038120838252907f0a4e1e5035320483d096cf114513007c4eda3853a4dca806da2d9faec60470a69060200160405180910390a25060015b92915050565b6000610680611eea565b600060018560405161069291906134c2565b90815260405190819003602001902060019081015460ff600160a01b9091041691508160058111156106c6576106c6612c9b565b14806106e3575060048160058111156106e1576106e1612c9b565b145b1561084957826001866040516106f991906134c2565b90815260200160405180910390206005015410156107595760405162461bcd60e51b815260206004820181905260248201527f61737369676e206173736574206173736574206973206e6f74206c6f636b6564604482015260640161059f565b6107668560028587611f47565b6107b25760405162461bcd60e51b815260206004820152601860248201527f61737369676e2061737365742063616c6c206661696c65640000000000000000604482015260640161059f565b826001866040516107c391906134c2565b908152602001604051809103902060050160008282546107e39190613507565b90915550506040516107f69086906134c2565b604080519182900382206001600160a01b038716835260208301869052917f0b3112bdbedc0251766a323a5c6ad4df77174bbc08bd61b944815ad9efe8d54c910160405180910390a26001915050610996565b600281600581111561085d5761085d612c9b565b148061087a5750600581600581111561087857610878612c9b565b145b1561097b578260018660405161089091906134c2565b908152602001604051809103902060050154146108ef5760405162461bcd60e51b815260206004820181905260248201527f41737369676e206e6674202d206173736574206973206e6f74206c6f636b6564604482015260640161059f565b6108fc8560028587611f47565b6109485760405162461bcd60e51b815260206004820152601660248201527f61737369676e206e66742063616c6c206661696c656400000000000000000000604482015260640161059f565b600060018660405161095a91906134c2565b908152604051908190036020018120600501919091556107f69086906134c2565b8460405163c16fc3ad60e01b815260040161059f91906134de565b9392505050565b60606003805480602002602001604051908101604052809291908181526020016000905b82821015610a6d5783829060005260206000200180546109e090613488565b80601f0160208091040260200160405190810160405280929190818152602001828054610a0c90613488565b8015610a595780601f10610a2e57610100808354040283529160200191610a59565b820191906000526020600020905b815481529060010190602001808311610a3c57829003601f168201915b5050505050815260200190600101906109c1565b50505050905090565b6000610a80611eea565b3063f272660b8888888888886000604051908082528060200260200182016040528015610aea57816020015b610ad76040805160808101909152806000815260606020820181905260408201819052600091015290565b815260200190600190039081610aac5790505b506040518863ffffffff1660e01b8152600401610b0d979695949392919061351a565b6020604051808303816000875af1158015610b2c573d6000803e3d6000fd5b505050506040513d601f19601f82011682018060405250810190610b5091906136bb565b979650505050505050565b610b63611eea565b610b6d6000612263565b565b6000610b79611eea565b60006001600160a01b0316600183604051610b9491906134c2565b908152604051908190036020019020600101546001600160a01b031603610bd0578160405163c0bab25f60e01b815260040161059f91906134de565b6000600183604051610be291906134c2565b9081526040519081900360200190206001015460ff600160a01b9091041690506004816005811115610c1657610c16612c9b565b1480610c3357506001816005811115610c3157610c31612c9b565b145b15610c82576000600184604051610c4a91906134c2565b9081526020016040518091039020600501541115610c7d5782604051635be9608560e11b815260040161059f91906134de565b610d17565b6005816005811115610c9657610c96612c9b565b1480610cb357506002816005811115610cb157610cb1612c9b565b145b15610cfc57600183604051610cc891906134c2565b908152602001604051809103902060050154600014610c7d5782604051635be9608560e11b815260040161059f91906134de565b8260405163c16fc3ad60e01b815260040161059f91906134de565b610dc9600184604051610d2a91906134c2565b90815260200160405180910390206002018054610d4690613488565b80601f0160208091040260200160405190810160405280929190818152602001828054610d7290613488565b8015610dbf5780601f10610d9457610100808354040283529160200191610dbf565b820191906000526020600020905b815481529060010190602001808311610da257829003601f168201915b50505050506122c0565b600183604051610dd991906134c2565b9081526040519081900360200190206000610df48282612929565b60018201805474ffffffffffffffffffffffffffffffffffffffffff19169055610e22600283016000612929565b610e30600383016000612929565b5060048101805473ffffffffffffffffffffffffffffffffffffffff191690556000600590910155604051610e669084906134c2565b604051908190038120907f3855d31914452a5e7361730662e60834555d7cb26d380140894d85fd0d13b85490600090a260019150505b919050565b6000610eab611eea565b6000600184604051610ebd91906134c2565b90815260405190819003602001902060019081015460ff600160a01b909104169150816005811115610ef157610ef1612c9b565b1480610f0e57506004816005811115610f0c57610f0c612c9b565b145b156110655782600185604051610f2491906134c2565b9081526020016040518091039020600501541015610f845760405162461bcd60e51b815260206004820152601e60248201527f6275726e206173736574206173736574206973206e6f74206c6f636b65640000604482015260640161059f565b610f9084600185611f30565b610fdc5760405162461bcd60e51b815260206004820152601660248201527f6275726e2061737365742063616c6c206661696c656400000000000000000000604482015260640161059f565b82600185604051610fed91906134c2565b9081526020016040518091039020600501600082825461100d9190613507565b90915550506040516110209085906134c2565b604051908190038120848252907fa0237080cf48d9e1fbb9ef1f82e33b11170d047b2b540a73b457d0916d53ee99906020015b60405180910390a26001915050610670565b600281600581111561107957611079612c9b565b14806110965750600581600581111561109457611094612c9b565b145b1561122d576001846040516110ab91906134c2565b90815260200160405180910390206005015460000361110c5760405162461bcd60e51b815260206004820152601660248201527f4275726e696e6720756e6d696e74656420617373657400000000000000000000604482015260640161059f565b8260018560405161111d91906134c2565b908152602001604051809103902060050154146111a25760405162461bcd60e51b815260206004820152603060248201527f4275726e696e67204e4654206661696c65642064756520746f2077726f6e672060448201527f756e6971756544657363726970746f7200000000000000000000000000000000606482015260840161059f565b6111ae84600185611f30565b6111fa5760405162461bcd60e51b815260206004820152601660248201527f6275726e2061737365742063616c6c206661696c656400000000000000000000604482015260640161059f565b600060018560405161120c91906134c2565b908152604051908190036020018120600501919091556110209085906134c2565b8360405163c16fc3ad60e01b815260040161059f91906134de565b5092915050565b6040805160e0810182526060808252600060208301819052928201839052808201819052608082015260a0810182905260c081019190915260018260405161129791906134c2565b90815260200160405180910390206040518060e00160405290816000820180546112c090613488565b80601f01602080910402602001604051908101604052809291908181526020018280546112ec90613488565b80156113395780601f1061130e57610100808354040283529160200191611339565b820191906000526020600020905b81548152906001019060200180831161131c57829003601f168201915b505050918352505060018201546001600160a01b0381166020830152604090910190600160a01b900460ff16600581111561137657611376612c9b565b600581111561138757611387612c9b565b815260200160028201805461139b90613488565b80601f01602080910402602001604051908101604052809291908181526020018280546113c790613488565b80156114145780601f106113e957610100808354040283529160200191611414565b820191906000526020600020905b8154815290600101906020018083116113f757829003601f168201915b5050505050815260200160038201805461142d90613488565b80601f016020809104026020016040519081016040528092919081815260200182805461145990613488565b80156114a65780601f1061147b576101008083540402835291602001916114a6565b820191906000526020600020905b81548152906001019060200180831161148957829003601f168201915b505050918352505060048201546001600160a01b0316602082015260059091015460409091015292915050565b60006114dd611eea565b60006001600160a01b03166001846040516114f891906134c2565b908152604051908190036020019020600101546001600160a01b031603611534578260405163c0bab25f60e01b815260040161059f91906134de565b600060018460405161154691906134c2565b90815260405190819003602001902060019081015460ff600160a01b90910416915081600581111561157a5761157a612c9b565b14806115975750600481600581111561159557611595612c9b565b145b156116f457826001856040516115ad91906134c2565b90815260200160405180910390206005015410156115fb5783836040517fed579e6000000000000000000000000000000000000000000000000000000000815260040161059f9291906136d8565b61160784600585611f30565b6116795760405162461bcd60e51b815260206004820152602160248201527f556e6c6f636b2066756e6769626c652061737365742063616c6c206661696c6560448201527f6400000000000000000000000000000000000000000000000000000000000000606482015260840161059f565b8260018560405161168a91906134c2565b908152602001604051809103902060050160008282546116aa9190613507565b90915550506040516116bd9085906134c2565b604051908190038120848252907f7b3c894115251262b174b7aeab24a57e00bc2e8853d1ef2f57a217edaa69c06e90602001611053565b600281600581111561170857611708612c9b565b14806117255750600581600581111561172357611723612c9b565b145b1561122d5760018460405161173a91906134c2565b9081526020016040518091039020600501546000036117c15760405162461bcd60e51b815260206004820152602c60248201527f547279696e6720746f20556e6c6f636b20616e2061737365742074686174206960448201527f73206e6f74206c6f636b65640000000000000000000000000000000000000000606482015260840161059f565b826001856040516117d291906134c2565b908152602001604051809103902060050154146118575760405162461bcd60e51b815260206004820152603a60248201527f556e6c6f636b696e67204e46542063616e6e6f7420626520646f6e652064756560448201527f20746f2077726f6e6720756e6971756544657363726970746f72000000000000606482015260840161059f565b61186384600585611f30565b6118d55760405162461bcd60e51b815260206004820152602560248201527f556e6c6f636b206e6f6e2066756e6769626c652061737365742063616c6c206660448201527f61696c6564000000000000000000000000000000000000000000000000000000606482015260840161059f565b60006001856040516118e791906134c2565b908152604051908190036020018120600501919091556116bd9085906134c2565b6000611912611eea565b60006001600160a01b031660018460405161192d91906134c2565b908152604051908190036020019020600101546001600160a01b031603611969578260405163c0bab25f60e01b815260040161059f91906134de565b600061197784600485611f30565b90508015611b2e57600060018560405161199191906134c2565b90815260405190819003602001902060019081015460ff600160a01b9091041691508160058111156119c5576119c5612c9b565b14806119e2575060048160058111156119e0576119e0612c9b565b145b15611a2357836001866040516119f891906134c2565b90815260200160405180910390206005016000828254611a1891906136fa565b90915550611adb9050565b6002816005811115611a3757611a37612c9b565b1480611a5457506005816005811115611a5257611a52612c9b565b145b1561097b57600185604051611a6991906134c2565b908152602001604051809103902060050154600014611ab657846040517fc4d7534400000000000000000000000000000000000000000000000000000000815260040161059f91906134de565b83600186604051611ac791906134c2565b908152604051908190036020019020600501555b84604051611ae991906134c2565b604051908190038120858252907fc480ef4e831b2ca5eb0b2f95c6564d9a56af5b3fe2383393008e3f1708dc97979060200160405180910390a2600192505050610670565b836040517f8244096a00000000000000000000000000000000000000000000000000000000815260040161059f91906134de565b6000611b6c611eea565b60006001600160a01b0316600186604051611b8791906134c2565b908152604051908190036020019020600101546001600160a01b031614611bdc57846040517f67ab234400000000000000000000000000000000000000000000000000000000815260040161059f91906134de565b611be6858361241e565b600285604051611bf691906134c2565b9081526040805160209281900383019020600360008181529190935220015460ff1615611c9a57611c2885600361253e565b611c9a5760405162461bcd60e51b815260206004820152603c60248201527f436f6e747261637420646f6573206e6f742068617665207065726d697373696f60448201527f6e20746f20696e74657261637420776974682074686520746f6b656e00000000606482015260840161059f565b6040518060e00160405280898152602001886001600160a01b03168152602001876005811115611ccc57611ccc612c9b565b8152602001868152602001858152602001846001600160a01b031681526020016000815250600186604051611d0191906134c2565b90815260405190819003602001902081518190611d1e908261375b565b5060208201516001820180546001600160a01b0390921673ffffffffffffffffffffffffffffffffffffffff1983168117825560408501519274ffffffffffffffffffffffffffffffffffffffffff191617600160a01b836005811115611d8757611d87612c9b565b021790555060608201516002820190611da0908261375b565b5060808201516003820190611db5908261375b565b5060a082015160048201805473ffffffffffffffffffffffffffffffffffffffff19166001600160a01b0390921691909117905560c090910151600590910155600380546001810182556000919091527fc2575a0e9e593c00f959f8c92f12db2869c3395a3b0502d05e2516446f71f85b01611e31868261375b565b5084604051611e4091906134c2565b60405180910390207f1455a30f034090309f76768ab435a6bd3c547427fc31dbe48477cfb5b9f47dda89898987604051611e7d949392919061381b565b60405180910390a2506001979650505050505050565b611e9b611eea565b6001600160a01b038116611ede576040517f1e4fbdf70000000000000000000000000000000000000000000000000000000081526000600482015260240161059f565b611ee781612263565b50565b6000546001600160a01b03163314610b6d576040517f118cdaa700000000000000000000000000000000000000000000000000000000815233600482015260240161059f565b6000611f3f8484846000611f47565b949350505050565b6000600285604051611f5991906134c2565b90815260200160405180910390206000856006811115611f7b57611f7b612c9b565b6006811115611f8c57611f8c612c9b565b815260208101919091526040016000206003015460ff16611faf57506000611f3f565b60005b600286604051611fc291906134c2565b90815260200160405180910390206000866006811115611fe457611fe4612c9b565b6006811115611ff557611ff5612c9b565b815260208101919091526040016000206001015481101561225757600060028760405161202291906134c2565b9081526020016040518091039020600087600681111561204457612044612c9b565b600681111561205557612055612c9b565b815260200190815260200160002060010182815481106120775761207761385f565b906000526020600020016040516020016120919190613875565b60405160208183030381529060405280519060200120905060006121ad826121a860028b6040516120c291906134c2565b908152602001604051809103902060008b60068111156120e4576120e4612c9b565b60068111156120f5576120f5612c9b565b815260200190815260200160002060020186815481106121175761211761385f565b9060005260206000200180548060200260200160405190810160405280929190818152602001828054801561219b57602002820191906000526020600020906000905b82829054906101000a900460ff16600781111561217957612179612c9b565b81526020600192830181810494850194909303909202910180841161215a5790505b50505050508b898b61254d565b61286a565b905060006001896040516121c191906134c2565b908152604051908190036020018120600101546001600160a01b0316906121e99084906134c2565b6000604051808303816000865af19150503d8060008114612226576040519150601f19603f3d011682016040523d82523d6000602084013e61222b565b606091505b5050905080612241576000945050505050611f3f565b505050808061224f906138eb565b915050611fb2565b50600195945050505050565b600080546001600160a01b0383811673ffffffffffffffffffffffffffffffffffffffff19831681178455604051919092169283917f8be0079c531659141344cd1fd0a4f28419497f9722a3daafe3b4186f6b6457e09190a35050565b60005b60035481101561241a5761237c600382815481106122e3576122e361385f565b9060005260206000200180546122f890613488565b80601f016020809104026020016040519081016040528092919081815260200182805461232490613488565b80156123715780601f1061234657610100808354040283529160200191612371565b820191906000526020600020905b81548152906001019060200180831161235457829003601f168201915b505050505083612904565b15612408576003805461239190600190613507565b815481106123a1576123a161385f565b90600052602060002001600382815481106123be576123be61385f565b9060005260206000200190816123d49190613904565b5060038054806123e6576123e66139df565b6001900381819060005260206000200160006124029190612929565b90555050565b80612412816138eb565b9150506122c3565b5050565b60005b81518110156125395781818151811061243c5761243c61385f565b602002602001015160028460405161245491906134c2565b908152602001604051809103902060008484815181106124765761247661385f565b602002602001015160000151600681111561249357612493612c9b565b60068111156124a4576124a4612c9b565b8152602081019190915260400160002081518154829060ff191660018360068111156124d2576124d2612c9b565b021790555060208281015180516124ef9260018501920190612963565b506040820151805161250b9160028401916020909101906129b9565b50606091909101516003909101805460ff191691151591909117905580612531816138eb565b915050612421565b505050565b60006109968383600080611f47565b60606000855167ffffffffffffffff81111561256b5761256b612b36565b60405190808252806020026020018201604052801561259e57816020015b60608152602001906001900390816125895790505b50905060005b86518110156128605760058782815181106125c1576125c161385f565b602002602001015160078111156125da576125da612c9b565b0361261c5760408051306020820152015b60405160208183030381529060405282828151811061260c5761260c61385f565b602002602001018190525061284e565b60028782815181106126305761263061385f565b6020026020010151600781111561264957612649612c9b565b0361265f57856040516020016125eb91906134de565b60048782815181106126735761267361385f565b6020026020010151600781111561268c5761268c612c9b565b036126a2576040805160208101869052016125eb565b60038782815181106126b6576126b661385f565b602002602001015160078111156126cf576126cf612c9b565b0361270d576001866040516126e491906134c2565b908152604080519182900360209081018320600401546001600160a01b031690830152016125eb565b60008782815181106127215761272161385f565b6020026020010151600781111561273a5761273a612c9b565b036127785760018660405161274f91906134c2565b908152604080519182900360209081018320600101546001600160a01b031690830152016125eb565b600687828151811061278c5761278c61385f565b602002602001015160078111156127a5576127a5612c9b565b036127c357604080516001600160a01b0387166020820152016125eb565b60078782815181106127d7576127d761385f565b602002602001015160078111156127f0576127f0612c9b565b03612806576040805160208101869052016125eb565b60405162461bcd60e51b815260206004820152601660248201527f5661726961626c65206e6f7420737570706f7274656400000000000000000000604482015260640161059f565b80612858816138eb565b9150506125a4565b5095945050505050565b604080517fffffffff000000000000000000000000000000000000000000000000000000008416602082015281516004818303018152602490910190915260005b825181101561124857818382815181106128c7576128c761385f565b60200260200101516040516020016128e09291906139f5565b604051602081830303815290604052915080806128fc906138eb565b9150506128ab565b6000815183511480156109965750508051602091820120825192909101919091201490565b50805461293590613488565b6000825580601f10612945575050565b601f016020900490600052602060002090810190611ee79190612a12565b8280548282559060005260206000209081019282156129a9579160200282015b828111156129a95782518290612999908261375b565b5091602001919060010190612983565b506129b5929150612a27565b5090565b828054828255906000526020600020908101928215612a06579160200282015b82811115612a0657825180516129f6918491602090910190612a44565b50916020019190600101906129d9565b506129b5929150612af4565b5b808211156129b55760008155600101612a13565b808211156129b5576000612a3b8282612929565b50600101612a27565b82805482825590600052602060002090601f01602090048101928215612ae85791602002820160005b83821115612ab957835183826101000a81548160ff02191690836007811115612a9857612a98612c9b565b02179055509260200192600101602081600001049283019260010302612a6d565b8015612ae65782816101000a81549060ff0219169055600101602081600001049283019260010302612ab9565b505b506129b5929150612a12565b808211156129b5576000612b088282612b11565b50600101612af4565b50805460008255601f016020900490600052602060002090810190611ee79190612a12565b634e487b7160e01b600052604160045260246000fd5b6040516080810167ffffffffffffffff81118282101715612b6f57612b6f612b36565b60405290565b604051601f8201601f1916810167ffffffffffffffff81118282101715612b9e57612b9e612b36565b604052919050565b600082601f830112612bb757600080fd5b813567ffffffffffffffff811115612bd157612bd1612b36565b612be4601f8201601f1916602001612b75565b818152846020838601011115612bf957600080fd5b816020850160208301376000918101602001919091529392505050565b600060208284031215612c2857600080fd5b813567ffffffffffffffff811115612c3f57600080fd5b611f3f84828501612ba6565b60005b83811015612c66578181015183820152602001612c4e565b50506000910152565b60008151808452612c87816020860160208601612c4b565b601f01601f19169290920160200192915050565b634e487b7160e01b600052602160045260246000fd5b60068110612cc157612cc1612c9b565b9052565b60e081526000612cd860e083018a612c6f565b6001600160a01b03808a166020850152612cf5604085018a612cb1565b8382036060850152612d078289612c6f565b91508382036080850152612d1b8288612c6f565b951660a0840152505060c0015295945050505050565b60008060408385031215612d4457600080fd5b823567ffffffffffffffff811115612d5b57600080fd5b612d6785828601612ba6565b95602094909401359450505050565b80356001600160a01b0381168114610e9c57600080fd5b600080600080600060808688031215612da557600080fd5b612dae86612d76565b9450612dbc60208701612d76565b935060408601359250606086013567ffffffffffffffff80821115612de057600080fd5b818801915088601f830112612df457600080fd5b813581811115612e0357600080fd5b896020828501011115612e1557600080fd5b9699959850939650602001949392505050565b600080600060608486031215612e3d57600080fd5b833567ffffffffffffffff811115612e5457600080fd5b612e6086828701612ba6565b935050612e6f60208501612d76565b9150604084013590509250925092565b600081518084526020808501808196508360051b8101915082860160005b85811015612ec7578284038952612eb5848351612c6f565b98850198935090840190600101612e9d565b5091979650505050505050565b6020815260006109966020830184612e7f565b803560068110610e9c57600080fd5b60008060008060008060c08789031215612f0f57600080fd5b863567ffffffffffffffff80821115612f2757600080fd5b612f338a838b01612ba6565b9750612f4160208a01612d76565b9650612f4f60408a01612ee7565b95506060890135915080821115612f6557600080fd5b612f718a838b01612ba6565b94506080890135915080821115612f8757600080fd5b50612f9489828a01612ba6565b925050612fa360a08801612d76565b90509295509295509295565b602081526000825160e06020840152612fcc610100840182612c6f565b905060208401516001600160a01b03808216604086015260408601519150612ff76060860183612cb1565b60608601519150601f19808685030160808701526130158484612c6f565b935060808701519250808685030160a0870152506130338383612c6f565b92508060a08701511660c0860152505060c084015160e08401528091505092915050565b803560078110610e9c57600080fd5b6000806040838503121561307957600080fd5b823567ffffffffffffffff81111561309057600080fd5b61309c85828601612ba6565b9250506130ab60208401613057565b90509250929050565b60078110612cc157612cc1612c9b565b604081016130d282856130b4565b82151560208301529392505050565b600067ffffffffffffffff8211156130fb576130fb612b36565b5060051b60200190565b600082601f83011261311657600080fd5b8135602061312b613126836130e1565b612b75565b828152600592831b850182019282820191908785111561314a57600080fd5b8387015b858110156131ef57803567ffffffffffffffff81111561316e5760008081fd5b8801603f81018a136131805760008081fd5b858101356040613192613126836130e1565b82815291851b8301810191888101908d8411156131af5760008081fd5b938201935b838510156131de5784359250600883106131ce5760008081fd5b82825293890193908901906131b4565b88525050509385019350840161314e565b5090979650505050505050565b8015158114611ee757600080fd5b8035610e9c816131fc565b600082601f83011261322657600080fd5b61323361312683356130e1565b82358082526020808301929160051b8501018581111561325257600080fd5b602085015b818110156133835767ffffffffffffffff808235111561327657600080fd5b813587016080818a03601f1901121561328e57600080fd5b613296612b4c565b6132a260208301613057565b81526040820135838111156132b657600080fd5b8201603f81018b136132c757600080fd5b60208101356132d8613126826130e1565b81815260059190911b82016040019060208101908d8311156132f957600080fd5b604084015b8381101561333257878135111561331457600080fd5b6133248f60408335880101612ba6565b8352602092830192016132fe565b50602085015250505060608201358381111561334d57600080fd5b61335c8b602083860101613105565b60408301525061336e6080830161320a565b60608201528652505060209384019301613257565b509095945050505050565b600080600080600080600060e0888a0312156133a957600080fd5b873567ffffffffffffffff808211156133c157600080fd5b6133cd8b838c01612ba6565b98506133db60208b01612d76565b97506133e960408b01612ee7565b965060608a01359150808211156133ff57600080fd5b61340b8b838c01612ba6565b955060808a013591508082111561342157600080fd5b61342d8b838c01612ba6565b945061343b60a08b01612d76565b935060c08a013591508082111561345157600080fd5b5061345e8a828b01613215565b91505092959891949750929550565b60006020828403121561347f57600080fd5b61099682612d76565b600181811c9082168061349c57607f821691505b6020821081036134bc57634e487b7160e01b600052602260045260246000fd5b50919050565b600082516134d4818460208701612c4b565b9190910192915050565b6020815260006109966020830184612c6f565b634e487b7160e01b600052601160045260246000fd5b81810381811115610670576106706134f1565b60e08152600061352d60e083018a612c6f565b6001600160a01b03891660208401526135496040840189612cb1565b828103606084015261355b8188612c6f565b9050828103608084015261356f8187612c6f565b90506001600160a01b03851660a084015282810360c084015280845180835260208301915060208160051b8401016020870160005b838110156136a857601f198087850301865282516135c38582516130b4565b6020810151608060208701526135dc6080870182612e7f565b90506040820151868203604088015281815180845260208401915060208160051b85010160208401935060005b8281101561367157858203880184528451805180845260209182019184019060005b818110156136595783516008811061364557613645612c9b565b83526020938401939092019160010161362b565b50506020968701969590950194925050600101613609565b506060860151965061368760608b018815159052565b809950505050505050506020820191506020850194506001810190506135a4565b50909d9c50505050505050505050505050565b6000602082840312156136cd57600080fd5b8151610996816131fc565b6040815260006136eb6040830185612c6f565b90508260208301529392505050565b80820180821115610670576106706134f1565b601f82111561253957600081815260208120601f850160051c810160208610156137345750805b601f850160051c820191505b8181101561375357828155600101613740565b505050505050565b815167ffffffffffffffff81111561377557613775612b36565b613789816137838454613488565b8461370d565b602080601f8311600181146137be57600084156137a65750858301515b600019600386901b1c1916600185901b178555613753565b600085815260208120601f198616915b828110156137ed578886015182559484019460019091019084016137ce565b508582101561380b5787850151600019600388901b60f8161c191681555b5050505050600190811b01905550565b60808152600061382e6080830187612c6f565b90506001600160a01b03808616602084015261384d6040840186612cb1565b80841660608401525095945050505050565b634e487b7160e01b600052603260045260246000fd5b600080835461388381613488565b6001828116801561389b57600181146138b0576138df565b60ff19841687528215158302870194506138df565b8760005260208060002060005b858110156138d65781548a8201529084019082016138bd565b50505082870194505b50929695505050505050565b6000600182016138fd576138fd6134f1565b5060010190565b81810361390f575050565b6139198254613488565b67ffffffffffffffff81111561393157613931612b36565b61393f816137838454613488565b6000601f821160018114613973576000831561395b5750848201545b600019600385901b1c1916600184901b1784556139d8565b600085815260209020601f19841690600086815260209020845b838110156139ad578286015482556001958601959091019060200161398d565b50858310156139cb5781850154600019600388901b60f8161c191681555b50505060018360011b0184555b5050505050565b634e487b7160e01b600052603160045260246000fd5b60008351613a07818460208801612c4b565b835190830190613a1b818360208801612c4b565b0194935050505056fea2646970667358221220b33f5f617c849252380b44b5e61dd185c2f85cc2a891afc15276b35daa9cad8864736f6c63430008140033","linkReferences":{}},"methodIdentifiers":{"assign(string,address,uint256)":"4534ba17","bridge_address()":"1255c189","burn(string,uint256)":"b48272cc","getAllAssetsIDs()":"5137b8a7","getToken(string)":"c1733f68","lock(string,uint256)":"e1efb596","mint(string,uint256)":"056b01ce","onERC721Received(address,address,uint256,bytes)":"150b7a02","owner()":"8da5cb5b","renounceOwnership()":"715018a6","tokens(string)":"04c2320b","tokensInteractions(string,uint8)":"ea8f547f","transferOwnership(address)":"f2fde38b","unlock(string,uint256)":"d9cf884c","unwrap(string)":"a1bc17c5","wrap(string,address,uint8,string,string,address)":"6a0876e0","wrap(string,address,uint8,string,string,address,(uint8,string[],uint8[][],bool)[])":"f272660b"},"id":32}