{"abi":[{"type":"constructor","inputs":[{"name":"_bridge_address","type":"address","internalType":"address"}],"stateMutability":"nonpayable"},{"type":"function","name":"assign","inputs":[{"name":"tokenId","type":"string","internalType":"string"},{"name":"receiver_account","type":"address","internalType":"address"},{"name":"assetAttribute","type":"uint256","internalType":"uint256"}],"outputs":[{"name":"success","type":"bool","internalType":"bool"}],"stateMutability":"nonpayable"},{"type":"function","name":"bridge_address","inputs":[],"outputs":[{"name":"","type":"address","internalType":"address"}],"stateMutability":"view"},{"type":"function","name":"burn","inputs":[{"name":"tokenId","type":"string","internalType":"string"},{"name":"assetAttribute","type":"uint256","internalType":"uint256"}],"outputs":[{"name":"success","type":"bool","internalType":"bool"}],"stateMutability":"nonpayable"},{"type":"function","name":"getAllAssetsIDs","inputs":[],"outputs":[{"name":"","type":"string[]","internalType":"string[]"}],"stateMutability":"view"},{"type":"function","name":"getToken","inputs":[{"name":"tokenId","type":"string","internalType":"string"}],"outputs":[{"name":"token","type":"tuple","internalType":"struct Token","components":[{"name":"contractName","type":"string","internalType":"string"},{"name":"contractAddress","type":"address","internalType":"address"},{"name":"tokenType","type":"uint8","internalType":"enum TokenType"},{"name":"tokenId","type":"string","internalType":"string"},{"name":"referenceId","type":"string","internalType":"string"},{"name":"owner","type":"address","internalType":"address"},{"name":"amount","type":"uint256","internalType":"uint256"}]}],"stateMutability":"view"},{"type":"function","name":"lock","inputs":[{"name":"tokenId","type":"string","internalType":"string"},{"name":"assetAttribute","type":"uint256","internalType":"uint256"}],"outputs":[{"name":"success","type":"bool","internalType":"bool"}],"stateMutability":"nonpayable"},{"type":"function","name":"mint","inputs":[{"name":"tokenId","type":"string","internalType":"string"},{"name":"assetAttribute","type":"uint256","internalType":"uint256"}],"outputs":[{"name":"success","type":"bool","internalType":"bool"}],"stateMutability":"nonpayable"},{"type":"function","name":"onERC721Received","inputs":[{"name":"","type":"address","internalType":"address"},{"name":"","type":"address","internalType":"address"},{"name":"","type":"uint256","internalType":"uint256"},{"name":"","type":"bytes","internalType":"bytes"}],"outputs":[{"name":"","type":"bytes4","internalType":"bytes4"}],"stateMutability":"pure"},{"type":"function","name":"owner","inputs":[],"outputs":[{"name":"","type":"address","internalType":"address"}],"stateMutability":"view"},{"type":"function","name":"renounceOwnership","inputs":[],"outputs":[],"stateMutability":"nonpayable"},{"type":"function","name":"tokens","inputs":[{"name":"","type":"string","internalType":"string"}],"outputs":[{"name":"contractName","type":"string","internalType":"string"},{"name":"contractAddress","type":"address","internalType":"address"},{"name":"tokenType","type":"uint8","internalType":"enum TokenType"},{"name":"tokenId","type":"string","internalType":"string"},{"name":"referenceId","type":"string","internalType":"string"},{"name":"owner","type":"address","internalType":"address"},{"name":"amount","type":"uint256","internalType":"uint256"}],"stateMutability":"view"},{"type":"function","name":"tokensInteractions","inputs":[{"name":"","type":"string","internalType":"string"},{"name":"","type":"uint8","internalType":"enum InteractionType"}],"outputs":[{"name":"interactionType","type":"uint8","internalType":"enum InteractionType"},{"name":"available","type":"bool","internalType":"bool"}],"stateMutability":"view"},{"type":"function","name":"transferOwnership","inputs":[{"name":"newOwner","type":"address","internalType":"address"}],"outputs":[],"stateMutability":"nonpayable"},{"type":"function","name":"unlock","inputs":[{"name":"tokenId","type":"string","internalType":"string"},{"name":"assetAttribute","type":"uint256","internalType":"uint256"}],"outputs":[{"name":"success","type":"bool","internalType":"bool"}],"stateMutability":"nonpayable"},{"type":"function","name":"unwrap","inputs":[{"name":"tokenId","type":"string","internalType":"string"}],"outputs":[{"name":"success","type":"bool","internalType":"bool"}],"stateMutability":"nonpayable"},{"type":"function","name":"wrap","inputs":[{"name":"contractName","type":"string","internalType":"string"},{"name":"contractAddress","type":"address","internalType":"address"},{"name":"tokenType","type":"uint8","internalType":"enum TokenType"},{"name":"tokenId","type":"string","internalType":"string"},{"name":"referenceId","type":"string","internalType":"string"},{"name":"owner","type":"address","internalType":"address"}],"outputs":[{"name":"wrapSuccess","type":"bool","internalType":"bool"}],"stateMutability":"nonpayable"},{"type":"function","name":"wrap","inputs":[{"name":"contractName","type":"string","internalType":"string"},{"name":"contractAddress","type":"address","internalType":"address"},{"name":"tokenType","type":"uint8","internalType":"enum TokenType"},{"name":"tokenId","type":"string","internalType":"string"},{"name":"referenceId","type":"string","internalType":"string"},{"name":"owner","type":"address","internalType":"address"},{"name":"interactions","type":"tuple[]","internalType":"struct InteractionSignature[]","components":[{"name":"interactionType","type":"uint8","internalType":"enum InteractionType"},{"name":"functionsSignature","type":"string[]","internalType":"string[]"},{"name":"variables","type":"uint8[][]","internalType":"enum AssetParameterIdentifier[][]"},{"name":"available","type":"bool","internalType":"bool"}]}],"outputs":[{"name":"wrapSuccess","type":"bool","internalType":"bool"}],"stateMutability":"nonpayable"},{"type":"event","name":"Approve","inputs":[{"name":"tokenId","type":"string","indexed":true,"internalType":"string"},{"name":"spender","type":"address","indexed":false,"internalType":"address"},{"name":"amount","type":"uint256","indexed":false,"internalType":"uint256"}],"anonymous":false},{"type":"event","name":"Assign","inputs":[{"name":"tokenId","type":"string","indexed":true,"internalType":"string"},{"name":"receiver_account","type":"address","indexed":false,"internalType":"address"},{"name":"amount","type":"uint256","indexed":false,"internalType":"uint256"}],"anonymous":false},{"type":"event","name":"Burn","inputs":[{"name":"tokenId","type":"string","indexed":true,"internalType":"string"},{"name":"amount","type":"uint256","indexed":false,"internalType":"uint256"}],"anonymous":false},{"type":"event","name":"Changed","inputs":[{"name":"id","type":"string","indexed":true,"internalType":"string"},{"name":"value","type":"bytes[]","indexed":false,"internalType":"bytes[]"}],"anonymous":false},{"type":"event","name":"Lock","inputs":[{"name":"tokenId","type":"string","indexed":true,"internalType":"string"},{"name":"amount","type":"uint256","indexed":false,"internalType":"uint256"}],"anonymous":false},{"type":"event","name":"Mint","inputs":[{"name":"tokenId","type":"string","indexed":true,"internalType":"string"},{"name":"amount","type":"uint256","indexed":false,"internalType":"uint256"}],"anonymous":false},{"type":"event","name":"OwnershipTransferred","inputs":[{"name":"previousOwner","type":"address","indexed":true,"internalType":"address"},{"name":"newOwner","type":"address","indexed":true,"internalType":"address"}],"anonymous":false},{"type":"event","name":"Unlock","inputs":[{"name":"tokenId","type":"string","indexed":true,"internalType":"string"},{"name":"amount","type":"uint256","indexed":false,"internalType":"uint256"}],"anonymous":false},{"type":"event","name":"Unwrap","inputs":[{"name":"tokenId","type":"string","indexed":true,"internalType":"string"}],"anonymous":false},{"type":"event","name":"Wrap","inputs":[{"name":"tokenId","type":"string","indexed":true,"internalType":"string"},{"name":"contractName","type":"string","indexed":false,"internalType":"string"},{"name":"contractAddress","type":"address","indexed":false,"internalType":"address"},{"name":"tokenType","type":"uint8","indexed":false,"internalType":"enum TokenType"},{"name":"owner","type":"address","indexed":false,"internalType":"address"}],"anonymous":false},{"type":"error","name":"InsuficientAmountLocked","inputs":[{"name":"tokenId","type":"string","internalType":"string"},{"name":"amount","type":"uint256","internalType":"uint256"}]},{"type":"error","name":"OwnableInvalidOwner","inputs":[{"name":"owner","type":"address","internalType":"address"}]},{"type":"error","name":"OwnableUnauthorizedAccount","inputs":[{"name":"account","type":"address","internalType":"address"}]},{"type":"error","name":"TokenAlreadyLocked","inputs":[{"name":"tokenId","type":"string","internalType":"string"}]},{"type":"error","name":"TokenAlreadyWrapped","inputs":[{"name":"tokenId","type":"string","internalType":"string"}]},{"type":"error","name":"TokenLocked","inputs":[{"name":"tokenId","type":"string","internalType":"string"}]},{"type":"error","name":"TokenNotAvailable","inputs":[{"name":"tokenId","type":"string","internalType":"string"}]},{"type":"error","name":"TokenNotLocked","inputs":[{"name":"tokenId","type":"string","internalType":"string"}]},{"type":"error","name":"TokenNotSupported","inputs":[{"name":"tokenId","type":"string","internalType":"string"}]}],"bytecode":{"object":"0x60806040523480156200001157600080fd5b5060405162003a6038038062003a608339810160408190526200003491620000e6565b806001600160a01b0381166200006457604051631e4fbdf760e01b81526000600482015260240160405180910390fd5b6200006f8162000096565b50600480546001600160a01b0319166001600160a01b039290921691909117905562000118565b600080546001600160a01b038381166001600160a01b0319831681178455604051919092169283917f8be0079c531659141344cd1fd0a4f28419497f9722a3daafe3b4186f6b6457e09190a35050565b600060208284031215620000f957600080fd5b81516001600160a01b03811681146200011157600080fd5b9392505050565b61393880620001286000396000f3fe608060405234801561001057600080fd5b506004361061011b5760003560e01c80638da5cb5b116100b2578063d9cf884c11610081578063ea8f547f11610066578063ea8f547f146102c8578063f272660b1461031f578063f2fde38b1461033257600080fd5b8063d9cf884c146102a2578063e1efb596146102b557600080fd5b80638da5cb5b1461024b578063a1bc17c51461025c578063b48272cc1461026f578063c1733f681461028257600080fd5b80634534ba17116100ee5780634534ba17146102065780635137b8a7146102195780636a0876e01461022e578063715018a61461024157600080fd5b806304c2320b14610120578063056b01ce1461014f5780631255c18914610172578063150b7a021461019d575b600080fd5b61013361012e366004612af4565b610345565b6040516101469796959493929190612ba3565b60405180910390f35b61016261015d366004612c0f565b61053e565b6040519015158152602001610146565b600454610185906001600160a01b031681565b6040516001600160a01b039091168152602001610146565b6101d56101ab366004612c6b565b7f150b7a020000000000000000000000000000000000000000000000000000000095945050505050565b6040517fffffffff000000000000000000000000000000000000000000000000000000009091168152602001610146565b610162610214366004612d06565b610676565b610221610963565b6040516101469190612db2565b61016261023c366004612dd4565b610a3c565b610249610b21565b005b6000546001600160a01b0316610185565b61016261026a366004612af4565b610b35565b61016261027d366004612c0f565b610e2d565b610295610290366004612af4565b6111a1565b6040516101469190612e8d565b6101626102b0366004612c0f565b611425565b6101626102c3366004612c0f565b611820565b6103116102d6366004612f44565b8151602081840181018051600282529282019482019490942091909352909152600090815260409020805460039091015460ff918216911682565b604051610146929190612fa2565b61016261032d36600461326c565b611a40565b61024961034036600461334b565b611d71565b805160208183018101805160018252928201919093012091528054819061036b90613366565b80601f016020809104026020016040519081016040528092919081815260200182805461039790613366565b80156103e45780601f106103b9576101008083540402835291602001916103e4565b820191906000526020600020905b8154815290600101906020018083116103c757829003601f168201915b50505050600183015460028401805493946001600160a01b03831694600160a01b90930460ff1693509161041790613366565b80601f016020809104026020016040519081016040528092919081815260200182805461044390613366565b80156104905780601f1061046557610100808354040283529160200191610490565b820191906000526020600020905b81548152906001019060200180831161047357829003601f168201915b5050505050908060030180546104a590613366565b80601f01602080910402602001604051908101604052809291908181526020018280546104d190613366565b801561051e5780601f106104f35761010080835404028352916020019161051e565b820191906000526020600020905b81548152906001019060200180831161050157829003601f168201915b50505050600483015460059093015491926001600160a01b031691905087565b6000610548611dc8565b60006001600160a01b031660018460405161056391906133a0565b908152604051908190036020019020600101546001600160a01b0316036105a8578260405163c0bab25f60e01b815260040161059f91906133bc565b60405180910390fd5b6105b483600084611e0e565b6106005760405162461bcd60e51b815260206004820152601660248201527f6d696e742061737365742063616c6c206661696c656400000000000000000000604482015260640161059f565b8160018460405161061191906133a0565b908152604051908190036020018120600501919091556106329084906133a0565b604051908190038120838252907f0a4e1e5035320483d096cf114513007c4eda3853a4dca806da2d9faec60470a69060200160405180910390a25060015b92915050565b6000610680611dc8565b600060018560405161069291906133a0565b90815260405190819003602001902060019081015460ff600160a01b9091041691508160028111156106c6576106c6612b79565b0361082c57826001866040516106dc91906133a0565b908152602001604051809103902060050154101561073c5760405162461bcd60e51b815260206004820181905260248201527f61737369676e206173736574206173736574206973206e6f74206c6f636b6564604482015260640161059f565b6107498560028587611e25565b6107955760405162461bcd60e51b815260206004820152601860248201527f61737369676e2061737365742063616c6c206661696c65640000000000000000604482015260640161059f565b826001866040516107a691906133a0565b908152602001604051809103902060050160008282546107c691906133e5565b90915550506040516107d99086906133a0565b604080519182900382206001600160a01b038716835260208301869052917f0b3112bdbedc0251766a323a5c6ad4df77174bbc08bd61b944815ad9efe8d54c910160405180910390a2600191505061095c565b600281600281111561084057610840612b79565b03610941578260018660405161085691906133a0565b908152602001604051809103902060050154146108b55760405162461bcd60e51b815260206004820181905260248201527f41737369676e206e6674202d206173736574206973206e6f74206c6f636b6564604482015260640161059f565b6108c28560028587611e25565b61090e5760405162461bcd60e51b815260206004820152601660248201527f61737369676e206e66742063616c6c206661696c656400000000000000000000604482015260640161059f565b600060018660405161092091906133a0565b908152604051908190036020018120600501919091556107d99086906133a0565b8460405163c16fc3ad60e01b815260040161059f91906133bc565b9392505050565b60606003805480602002602001604051908101604052809291908181526020016000905b82821015610a335783829060005260206000200180546109a690613366565b80601f01602080910402602001604051908101604052809291908181526020018280546109d290613366565b8015610a1f5780601f106109f457610100808354040283529160200191610a1f565b820191906000526020600020905b815481529060010190602001808311610a0257829003601f168201915b505050505081526020019060010190610987565b50505050905090565b6000610a46611dc8565b3063f272660b8888888888886000604051908082528060200260200182016040528015610ab057816020015b610a9d6040805160808101909152806000815260606020820181905260408201819052600091015290565b815260200190600190039081610a725790505b506040518863ffffffff1660e01b8152600401610ad397969594939291906133f8565b6020604051808303816000875af1158015610af2573d6000803e3d6000fd5b505050506040513d601f19601f82011682018060405250810190610b169190613599565b979650505050505050565b610b29611dc8565b610b336000612141565b565b6000610b3f611dc8565b60006001600160a01b0316600183604051610b5a91906133a0565b908152604051908190036020019020600101546001600160a01b031603610b96578160405163c0bab25f60e01b815260040161059f91906133bc565b6000600183604051610ba891906133a0565b90815260405190819003602001902060019081015460ff600160a01b909104169150816002811115610bdc57610bdc612b79565b03610c2b576000600184604051610bf391906133a0565b9081526020016040518091039020600501541115610c265782604051635be9608560e11b815260040161059f91906133bc565b610ca3565b6002816002811115610c3f57610c3f612b79565b03610c8857600183604051610c5491906133a0565b908152602001604051809103902060050154600014610c265782604051635be9608560e11b815260040161059f91906133bc565b8260405163c16fc3ad60e01b815260040161059f91906133bc565b610d55600184604051610cb691906133a0565b90815260200160405180910390206002018054610cd290613366565b80601f0160208091040260200160405190810160405280929190818152602001828054610cfe90613366565b8015610d4b5780601f10610d2057610100808354040283529160200191610d4b565b820191906000526020600020905b815481529060010190602001808311610d2e57829003601f168201915b505050505061219e565b600183604051610d6591906133a0565b9081526040519081900360200190206000610d808282612807565b60018201805474ffffffffffffffffffffffffffffffffffffffffff19169055610dae600283016000612807565b610dbc600383016000612807565b5060048101805473ffffffffffffffffffffffffffffffffffffffff191690556000600590910155604051610df29084906133a0565b604051908190038120907f3855d31914452a5e7361730662e60834555d7cb26d380140894d85fd0d13b85490600090a260019150505b919050565b6000610e37611dc8565b6000600184604051610e4991906133a0565b90815260405190819003602001902060019081015460ff600160a01b909104169150816002811115610e7d57610e7d612b79565b03610fd45782600185604051610e9391906133a0565b9081526020016040518091039020600501541015610ef35760405162461bcd60e51b815260206004820152601e60248201527f6275726e206173736574206173736574206973206e6f74206c6f636b65640000604482015260640161059f565b610eff84600185611e0e565b610f4b5760405162461bcd60e51b815260206004820152601660248201527f6275726e2061737365742063616c6c206661696c656400000000000000000000604482015260640161059f565b82600185604051610f5c91906133a0565b90815260200160405180910390206005016000828254610f7c91906133e5565b9091555050604051610f8f9085906133a0565b604051908190038120848252907fa0237080cf48d9e1fbb9ef1f82e33b11170d047b2b540a73b457d0916d53ee99906020015b60405180910390a26001915050610670565b6002816002811115610fe857610fe8612b79565b0361117f57600184604051610ffd91906133a0565b90815260200160405180910390206005015460000361105e5760405162461bcd60e51b815260206004820152601660248201527f4275726e696e6720756e6d696e74656420617373657400000000000000000000604482015260640161059f565b8260018560405161106f91906133a0565b908152602001604051809103902060050154146110f45760405162461bcd60e51b815260206004820152603060248201527f4275726e696e67204e4654206661696c65642064756520746f2077726f6e672060448201527f756e6971756544657363726970746f7200000000000000000000000000000000606482015260840161059f565b61110084600185611e0e565b61114c5760405162461bcd60e51b815260206004820152601660248201527f6275726e2061737365742063616c6c206661696c656400000000000000000000604482015260640161059f565b600060018560405161115e91906133a0565b90815260405190819003602001812060050191909155610f8f9085906133a0565b8360405163c16fc3ad60e01b815260040161059f91906133bc565b5092915050565b6040805160e0810182526060808252600060208301819052928201839052808201819052608082015260a0810182905260c08101919091526001826040516111e991906133a0565b90815260200160405180910390206040518060e001604052908160008201805461121290613366565b80601f016020809104026020016040519081016040528092919081815260200182805461123e90613366565b801561128b5780601f106112605761010080835404028352916020019161128b565b820191906000526020600020905b81548152906001019060200180831161126e57829003601f168201915b505050918352505060018201546001600160a01b0381166020830152604090910190600160a01b900460ff1660028111156112c8576112c8612b79565b60028111156112d9576112d9612b79565b81526020016002820180546112ed90613366565b80601f016020809104026020016040519081016040528092919081815260200182805461131990613366565b80156113665780601f1061133b57610100808354040283529160200191611366565b820191906000526020600020905b81548152906001019060200180831161134957829003601f168201915b5050505050815260200160038201805461137f90613366565b80601f01602080910402602001604051908101604052809291908181526020018280546113ab90613366565b80156113f85780601f106113cd576101008083540402835291602001916113f8565b820191906000526020600020905b8154815290600101906020018083116113db57829003601f168201915b505050918352505060048201546001600160a01b0316602082015260059091015460409091015292915050565b600061142f611dc8565b60006001600160a01b031660018460405161144a91906133a0565b908152604051908190036020019020600101546001600160a01b031603611486578260405163c0bab25f60e01b815260040161059f91906133bc565b600060018460405161149891906133a0565b90815260405190819003602001902060019081015460ff600160a01b9091041691508160028111156114cc576114cc612b79565b0361162957826001856040516114e291906133a0565b90815260200160405180910390206005015410156115305783836040517fed579e6000000000000000000000000000000000000000000000000000000000815260040161059f9291906135b6565b61153c84600585611e0e565b6115ae5760405162461bcd60e51b815260206004820152602160248201527f556e6c6f636b2066756e6769626c652061737365742063616c6c206661696c6560448201527f6400000000000000000000000000000000000000000000000000000000000000606482015260840161059f565b826001856040516115bf91906133a0565b908152602001604051809103902060050160008282546115df91906133e5565b90915550506040516115f29085906133a0565b604051908190038120848252907f7b3c894115251262b174b7aeab24a57e00bc2e8853d1ef2f57a217edaa69c06e90602001610fc2565b600281600281111561163d5761163d612b79565b0361117f5760018460405161165291906133a0565b9081526020016040518091039020600501546000036116d95760405162461bcd60e51b815260206004820152602c60248201527f547279696e6720746f20556e6c6f636b20616e2061737365742074686174206960448201527f73206e6f74206c6f636b65640000000000000000000000000000000000000000606482015260840161059f565b826001856040516116ea91906133a0565b9081526020016040518091039020600501541461176f5760405162461bcd60e51b815260206004820152603a60248201527f556e6c6f636b696e67204e46542063616e6e6f7420626520646f6e652064756560448201527f20746f2077726f6e6720756e6971756544657363726970746f72000000000000606482015260840161059f565b61177b84600585611e0e565b6117ed5760405162461bcd60e51b815260206004820152602560248201527f556e6c6f636b206e6f6e2066756e6769626c652061737365742063616c6c206660448201527f61696c6564000000000000000000000000000000000000000000000000000000606482015260840161059f565b60006001856040516117ff91906133a0565b908152604051908190036020018120600501919091556115f29085906133a0565b600061182a611dc8565b60006001600160a01b031660018460405161184591906133a0565b908152604051908190036020019020600101546001600160a01b031603611881578260405163c0bab25f60e01b815260040161059f91906133bc565b600061188f84600485611e0e565b90508015611a0c5760006001856040516118a991906133a0565b90815260405190819003602001902060019081015460ff600160a01b9091041691508160028111156118dd576118dd612b79565b0361191e57836001866040516118f391906133a0565b9081526020016040518091039020600501600082825461191391906135d8565b909155506119b99050565b600281600281111561193257611932612b79565b036109415760018560405161194791906133a0565b90815260200160405180910390206005015460001461199457846040517fc4d7534400000000000000000000000000000000000000000000000000000000815260040161059f91906133bc565b836001866040516119a591906133a0565b908152604051908190036020019020600501555b846040516119c791906133a0565b604051908190038120858252907fc480ef4e831b2ca5eb0b2f95c6564d9a56af5b3fe2383393008e3f1708dc97979060200160405180910390a2600192505050610670565b836040517f8244096a00000000000000000000000000000000000000000000000000000000815260040161059f91906133bc565b6000611a4a611dc8565b60006001600160a01b0316600186604051611a6591906133a0565b908152604051908190036020019020600101546001600160a01b031614611aba57846040517f67ab234400000000000000000000000000000000000000000000000000000000815260040161059f91906133bc565b611ac485836122fc565b600285604051611ad491906133a0565b9081526040805160209281900383019020600360008181529190935220015460ff1615611b7857611b0685600361241c565b611b785760405162461bcd60e51b815260206004820152603c60248201527f436f6e747261637420646f6573206e6f742068617665207065726d697373696f60448201527f6e20746f20696e74657261637420776974682074686520746f6b656e00000000606482015260840161059f565b6040518060e00160405280898152602001886001600160a01b03168152602001876002811115611baa57611baa612b79565b8152602001868152602001858152602001846001600160a01b031681526020016000815250600186604051611bdf91906133a0565b90815260405190819003602001902081518190611bfc9082613639565b5060208201516001820180546001600160a01b0390921673ffffffffffffffffffffffffffffffffffffffff1983168117825560408501519274ffffffffffffffffffffffffffffffffffffffffff191617600160a01b836002811115611c6557611c65612b79565b021790555060608201516002820190611c7e9082613639565b5060808201516003820190611c939082613639565b5060a082015160048201805473ffffffffffffffffffffffffffffffffffffffff19166001600160a01b0390921691909117905560c090910151600590910155600380546001810182556000919091527fc2575a0e9e593c00f959f8c92f12db2869c3395a3b0502d05e2516446f71f85b01611d0f8682613639565b5084604051611d1e91906133a0565b60405180910390207f1455a30f034090309f76768ab435a6bd3c547427fc31dbe48477cfb5b9f47dda89898987604051611d5b94939291906136f9565b60405180910390a2506001979650505050505050565b611d79611dc8565b6001600160a01b038116611dbc576040517f1e4fbdf70000000000000000000000000000000000000000000000000000000081526000600482015260240161059f565b611dc581612141565b50565b6000546001600160a01b03163314610b33576040517f118cdaa700000000000000000000000000000000000000000000000000000000815233600482015260240161059f565b6000611e1d8484846000611e25565b949350505050565b6000600285604051611e3791906133a0565b90815260200160405180910390206000856006811115611e5957611e59612b79565b6006811115611e6a57611e6a612b79565b815260208101919091526040016000206003015460ff16611e8d57506000611e1d565b60005b600286604051611ea091906133a0565b90815260200160405180910390206000866006811115611ec257611ec2612b79565b6006811115611ed357611ed3612b79565b8152602081019190915260400160002060010154811015612135576000600287604051611f0091906133a0565b90815260200160405180910390206000876006811115611f2257611f22612b79565b6006811115611f3357611f33612b79565b81526020019081526020016000206001018281548110611f5557611f5561373d565b90600052602060002001604051602001611f6f9190613753565b604051602081830303815290604052805190602001209050600061208b8261208660028b604051611fa091906133a0565b908152602001604051809103902060008b6006811115611fc257611fc2612b79565b6006811115611fd357611fd3612b79565b81526020019081526020016000206002018681548110611ff557611ff561373d565b9060005260206000200180548060200260200160405190810160405280929190818152602001828054801561207957602002820191906000526020600020906000905b82829054906101000a900460ff16600781111561205757612057612b79565b8152602060019283018181049485019490930390920291018084116120385790505b50505050508b898b61242b565b612748565b9050600060018960405161209f91906133a0565b908152604051908190036020018120600101546001600160a01b0316906120c79084906133a0565b6000604051808303816000865af19150503d8060008114612104576040519150601f19603f3d011682016040523d82523d6000602084013e612109565b606091505b505090508061211f576000945050505050611e1d565b505050808061212d906137c9565b915050611e90565b50600195945050505050565b600080546001600160a01b0383811673ffffffffffffffffffffffffffffffffffffffff19831681178455604051919092169283917f8be0079c531659141344cd1fd0a4f28419497f9722a3daafe3b4186f6b6457e09190a35050565b60005b6003548110156122f85761225a600382815481106121c1576121c161373d565b9060005260206000200180546121d690613366565b80601f016020809104026020016040519081016040528092919081815260200182805461220290613366565b801561224f5780601f106122245761010080835404028352916020019161224f565b820191906000526020600020905b81548152906001019060200180831161223257829003601f168201915b5050505050836127e2565b156122e6576003805461226f906001906133e5565b8154811061227f5761227f61373d565b906000526020600020016003828154811061229c5761229c61373d565b9060005260206000200190816122b291906137e2565b5060038054806122c4576122c46138bd565b6001900381819060005260206000200160006122e09190612807565b90555050565b806122f0816137c9565b9150506121a1565b5050565b60005b81518110156124175781818151811061231a5761231a61373d565b602002602001015160028460405161233291906133a0565b908152602001604051809103902060008484815181106123545761235461373d565b602002602001015160000151600681111561237157612371612b79565b600681111561238257612382612b79565b8152602081019190915260400160002081518154829060ff191660018360068111156123b0576123b0612b79565b021790555060208281015180516123cd9260018501920190612841565b50604082015180516123e9916002840191602090910190612897565b50606091909101516003909101805460ff19169115159190911790558061240f816137c9565b9150506122ff565b505050565b600061095c8383600080611e25565b60606000855167ffffffffffffffff81111561244957612449612a14565b60405190808252806020026020018201604052801561247c57816020015b60608152602001906001900390816124675790505b50905060005b865181101561273e57600587828151811061249f5761249f61373d565b602002602001015160078111156124b8576124b8612b79565b036124fa5760408051306020820152015b6040516020818303038152906040528282815181106124ea576124ea61373d565b602002602001018190525061272c565b600287828151811061250e5761250e61373d565b6020026020010151600781111561252757612527612b79565b0361253d57856040516020016124c991906133bc565b60048782815181106125515761255161373d565b6020026020010151600781111561256a5761256a612b79565b03612580576040805160208101869052016124c9565b60038782815181106125945761259461373d565b602002602001015160078111156125ad576125ad612b79565b036125eb576001866040516125c291906133a0565b908152604080519182900360209081018320600401546001600160a01b031690830152016124c9565b60008782815181106125ff576125ff61373d565b6020026020010151600781111561261857612618612b79565b036126565760018660405161262d91906133a0565b908152604080519182900360209081018320600101546001600160a01b031690830152016124c9565b600687828151811061266a5761266a61373d565b6020026020010151600781111561268357612683612b79565b036126a157604080516001600160a01b0387166020820152016124c9565b60078782815181106126b5576126b561373d565b602002602001015160078111156126ce576126ce612b79565b036126e4576040805160208101869052016124c9565b60405162461bcd60e51b815260206004820152601660248201527f5661726961626c65206e6f7420737570706f7274656400000000000000000000604482015260640161059f565b80612736816137c9565b915050612482565b5095945050505050565b604080517fffffffff000000000000000000000000000000000000000000000000000000008416602082015281516004818303018152602490910190915260005b825181101561119a57818382815181106127a5576127a561373d565b60200260200101516040516020016127be9291906138d3565b604051602081830303815290604052915080806127da906137c9565b915050612789565b60008151835114801561095c5750508051602091820120825192909101919091201490565b50805461281390613366565b6000825580601f10612823575050565b601f016020900490600052602060002090810190611dc591906128f0565b828054828255906000526020600020908101928215612887579160200282015b8281111561288757825182906128779082613639565b5091602001919060010190612861565b50612893929150612905565b5090565b8280548282559060005260206000209081019282156128e4579160200282015b828111156128e457825180516128d4918491602090910190612922565b50916020019190600101906128b7565b506128939291506129d2565b5b8082111561289357600081556001016128f1565b808211156128935760006129198282612807565b50600101612905565b82805482825590600052602060002090601f016020900481019282156129c65791602002820160005b8382111561299757835183826101000a81548160ff0219169083600781111561297657612976612b79565b0217905550926020019260010160208160000104928301926001030261294b565b80156129c45782816101000a81549060ff0219169055600101602081600001049283019260010302612997565b505b506128939291506128f0565b808211156128935760006129e682826129ef565b506001016129d2565b50805460008255601f016020900490600052602060002090810190611dc591906128f0565b634e487b7160e01b600052604160045260246000fd5b6040516080810167ffffffffffffffff81118282101715612a4d57612a4d612a14565b60405290565b604051601f8201601f1916810167ffffffffffffffff81118282101715612a7c57612a7c612a14565b604052919050565b600082601f830112612a9557600080fd5b813567ffffffffffffffff811115612aaf57612aaf612a14565b612ac2601f8201601f1916602001612a53565b818152846020838601011115612ad757600080fd5b816020850160208301376000918101602001919091529392505050565b600060208284031215612b0657600080fd5b813567ffffffffffffffff811115612b1d57600080fd5b611e1d84828501612a84565b60005b83811015612b44578181015183820152602001612b2c565b50506000910152565b60008151808452612b65816020860160208601612b29565b601f01601f19169290920160200192915050565b634e487b7160e01b600052602160045260246000fd5b60038110612b9f57612b9f612b79565b9052565b60e081526000612bb660e083018a612b4d565b6001600160a01b03808a166020850152612bd3604085018a612b8f565b8382036060850152612be58289612b4d565b91508382036080850152612bf98288612b4d565b951660a0840152505060c0015295945050505050565b60008060408385031215612c2257600080fd5b823567ffffffffffffffff811115612c3957600080fd5b612c4585828601612a84565b95602094909401359450505050565b80356001600160a01b0381168114610e2857600080fd5b600080600080600060808688031215612c8357600080fd5b612c8c86612c54565b9450612c9a60208701612c54565b935060408601359250606086013567ffffffffffffffff80821115612cbe57600080fd5b818801915088601f830112612cd257600080fd5b813581811115612ce157600080fd5b896020828501011115612cf357600080fd5b9699959850939650602001949392505050565b600080600060608486031215612d1b57600080fd5b833567ffffffffffffffff811115612d3257600080fd5b612d3e86828701612a84565b935050612d4d60208501612c54565b9150604084013590509250925092565b600081518084526020808501808196508360051b8101915082860160005b85811015612da5578284038952612d93848351612b4d565b98850198935090840190600101612d7b565b5091979650505050505050565b60208152600061095c6020830184612d5d565b803560038110610e2857600080fd5b60008060008060008060c08789031215612ded57600080fd5b863567ffffffffffffffff80821115612e0557600080fd5b612e118a838b01612a84565b9750612e1f60208a01612c54565b9650612e2d60408a01612dc5565b95506060890135915080821115612e4357600080fd5b612e4f8a838b01612a84565b94506080890135915080821115612e6557600080fd5b50612e7289828a01612a84565b925050612e8160a08801612c54565b90509295509295509295565b602081526000825160e06020840152612eaa610100840182612b4d565b905060208401516001600160a01b03808216604086015260408601519150612ed56060860183612b8f565b60608601519150601f1980868503016080870152612ef38484612b4d565b935060808701519250808685030160a087015250612f118383612b4d565b92508060a08701511660c0860152505060c084015160e08401528091505092915050565b803560078110610e2857600080fd5b60008060408385031215612f5757600080fd5b823567ffffffffffffffff811115612f6e57600080fd5b612f7a85828601612a84565b925050612f8960208401612f35565b90509250929050565b60078110612b9f57612b9f612b79565b60408101612fb08285612f92565b82151560208301529392505050565b600067ffffffffffffffff821115612fd957612fd9612a14565b5060051b60200190565b600082601f830112612ff457600080fd5b8135602061300961300483612fbf565b612a53565b828152600592831b850182019282820191908785111561302857600080fd5b8387015b858110156130cd57803567ffffffffffffffff81111561304c5760008081fd5b8801603f81018a1361305e5760008081fd5b85810135604061307061300483612fbf565b82815291851b8301810191888101908d84111561308d5760008081fd5b938201935b838510156130bc5784359250600883106130ac5760008081fd5b8282529389019390890190613092565b88525050509385019350840161302c565b5090979650505050505050565b8015158114611dc557600080fd5b8035610e28816130da565b600082601f83011261310457600080fd5b6131116130048335612fbf565b82358082526020808301929160051b8501018581111561313057600080fd5b602085015b818110156132615767ffffffffffffffff808235111561315457600080fd5b813587016080818a03601f1901121561316c57600080fd5b613174612a2a565b61318060208301612f35565b815260408201358381111561319457600080fd5b8201603f81018b136131a557600080fd5b60208101356131b661300482612fbf565b81815260059190911b82016040019060208101908d8311156131d757600080fd5b604084015b838110156132105787813511156131f257600080fd5b6132028f60408335880101612a84565b8352602092830192016131dc565b50602085015250505060608201358381111561322b57600080fd5b61323a8b602083860101612fe3565b60408301525061324c608083016130e8565b60608201528652505060209384019301613135565b509095945050505050565b600080600080600080600060e0888a03121561328757600080fd5b873567ffffffffffffffff8082111561329f57600080fd5b6132ab8b838c01612a84565b98506132b960208b01612c54565b97506132c760408b01612dc5565b965060608a01359150808211156132dd57600080fd5b6132e98b838c01612a84565b955060808a01359150808211156132ff57600080fd5b61330b8b838c01612a84565b945061331960a08b01612c54565b935060c08a013591508082111561332f57600080fd5b5061333c8a828b016130f3565b91505092959891949750929550565b60006020828403121561335d57600080fd5b61095c82612c54565b600181811c9082168061337a57607f821691505b60208210810361339a57634e487b7160e01b600052602260045260246000fd5b50919050565b600082516133b2818460208701612b29565b9190910192915050565b60208152600061095c6020830184612b4d565b634e487b7160e01b600052601160045260246000fd5b81810381811115610670576106706133cf565b60e08152600061340b60e083018a612b4d565b6001600160a01b03891660208401526134276040840189612b8f565b82810360608401526134398188612b4d565b9050828103608084015261344d8187612b4d565b90506001600160a01b03851660a084015282810360c084015280845180835260208301915060208160051b8401016020870160005b8381101561358657601f198087850301865282516134a1858251612f92565b6020810151608060208701526134ba6080870182612d5d565b90506040820151868203604088015281815180845260208401915060208160051b85010160208401935060005b8281101561354f57858203880184528451805180845260209182019184019060005b818110156135375783516008811061352357613523612b79565b835260209384019390920191600101613509565b505060209687019695909501949250506001016134e7565b506060860151965061356560608b018815159052565b80995050505050505050602082019150602085019450600181019050613482565b50909d9c50505050505050505050505050565b6000602082840312156135ab57600080fd5b815161095c816130da565b6040815260006135c96040830185612b4d565b90508260208301529392505050565b80820180821115610670576106706133cf565b601f82111561241757600081815260208120601f850160051c810160208610156136125750805b601f850160051c820191505b818110156136315782815560010161361e565b505050505050565b815167ffffffffffffffff81111561365357613653612a14565b613667816136618454613366565b846135eb565b602080601f83116001811461369c57600084156136845750858301515b600019600386901b1c1916600185901b178555613631565b600085815260208120601f198616915b828110156136cb578886015182559484019460019091019084016136ac565b50858210156136e95787850151600019600388901b60f8161c191681555b5050505050600190811b01905550565b60808152600061370c6080830187612b4d565b90506001600160a01b03808616602084015261372b6040840186612b8f565b80841660608401525095945050505050565b634e487b7160e01b600052603260045260246000fd5b600080835461376181613366565b60018281168015613779576001811461378e576137bd565b60ff19841687528215158302870194506137bd565b8760005260208060002060005b858110156137b45781548a82015290840190820161379b565b50505082870194505b50929695505050505050565b6000600182016137db576137db6133cf565b5060010190565b8181036137ed575050565b6137f78254613366565b67ffffffffffffffff81111561380f5761380f612a14565b61381d816136618454613366565b6000601f82116001811461385157600083156138395750848201545b600019600385901b1c1916600184901b1784556138b6565b600085815260209020601f19841690600086815260209020845b8381101561388b578286015482556001958601959091019060200161386b565b50858310156138a95781850154600019600388901b60f8161c191681555b50505060018360011b0184555b5050505050565b634e487b7160e01b600052603160045260246000fd5b600083516138e5818460208801612b29565b8351908301906138f9818360208801612b29565b0194935050505056fea26469706673582212201ac7307f19350bcce53b525a4568a573ee7bb44623e1b98f2105b8fb55f0cad564736f6c63430008140033","linkReferences":{}},"methodIdentifiers":{"assign(string,address,uint256)":"4534ba17","bridge_address()":"1255c189","burn(string,uint256)":"b48272cc","getAllAssetsIDs()":"5137b8a7","getToken(string)":"c1733f68","lock(string,uint256)":"e1efb596","mint(string,uint256)":"056b01ce","onERC721Received(address,address,uint256,bytes)":"150b7a02","owner()":"8da5cb5b","renounceOwnership()":"715018a6","tokens(string)":"04c2320b","tokensInteractions(string,uint8)":"ea8f547f","transferOwnership(address)":"f2fde38b","unlock(string,uint256)":"d9cf884c","unwrap(string)":"a1bc17c5","wrap(string,address,uint8,string,string,address)":"6a0876e0","wrap(string,address,uint8,string,string,address,(uint8,string[],uint8[][],bool)[])":"f272660b"},"id":7}