{"abi":[{"type":"constructor","inputs":[{"name":"_bridge_address","type":"address","internalType":"address"}],"stateMutability":"nonpayable"},{"type":"function","name":"NFT_IDs","inputs":[{"name":"","type":"string","internalType":"string"},{"name":"","type":"uint256","internalType":"uint256"}],"outputs":[{"name":"","type":"bool","internalType":"bool"}],"stateMutability":"view"},{"type":"function","name":"assign","inputs":[{"name":"tokenId","type":"string","internalType":"string"},{"name":"receiver_account","type":"address","internalType":"address"},{"name":"assetAttribute","type":"uint256","internalType":"uint256"}],"outputs":[{"name":"success","type":"bool","internalType":"bool"}],"stateMutability":"nonpayable"},{"type":"function","name":"bridge_address","inputs":[],"outputs":[{"name":"","type":"address","internalType":"address"}],"stateMutability":"view"},{"type":"function","name":"burn","inputs":[{"name":"tokenId","type":"string","internalType":"string"},{"name":"assetAttribute","type":"uint256","internalType":"uint256"}],"outputs":[{"name":"success","type":"bool","internalType":"bool"}],"stateMutability":"nonpayable"},{"type":"function","name":"getAllAssetsIDs","inputs":[],"outputs":[{"name":"","type":"string[]","internalType":"string[]"}],"stateMutability":"view"},{"type":"function","name":"getToken","inputs":[{"name":"tokenId","type":"string","internalType":"string"},{"name":"assetAttribute","type":"uint256","internalType":"uint256"}],"outputs":[{"name":"token","type":"tuple","internalType":"struct Token","components":[{"name":"contractName","type":"string","internalType":"string"},{"name":"contractAddress","type":"address","internalType":"address"},{"name":"tokenType","type":"uint8","internalType":"enum TokenType"},{"name":"tokenId","type":"string","internalType":"string"},{"name":"referenceId","type":"string","internalType":"string"},{"name":"owner","type":"address","internalType":"address"},{"name":"amount","type":"uint256","internalType":"uint256"}]}],"stateMutability":"view"},{"type":"function","name":"getToken","inputs":[{"name":"tokenId","type":"string","internalType":"string"}],"outputs":[{"name":"token","type":"tuple","internalType":"struct Token","components":[{"name":"contractName","type":"string","internalType":"string"},{"name":"contractAddress","type":"address","internalType":"address"},{"name":"tokenType","type":"uint8","internalType":"enum TokenType"},{"name":"tokenId","type":"string","internalType":"string"},{"name":"referenceId","type":"string","internalType":"string"},{"name":"owner","type":"address","internalType":"address"},{"name":"amount","type":"uint256","internalType":"uint256"}]}],"stateMutability":"view"},{"type":"function","name":"lock","inputs":[{"name":"tokenId","type":"string","internalType":"string"},{"name":"assetAttribute","type":"uint256","internalType":"uint256"}],"outputs":[{"name":"success","type":"bool","internalType":"bool"}],"stateMutability":"nonpayable"},{"type":"function","name":"mint","inputs":[{"name":"tokenId","type":"string","internalType":"string"},{"name":"assetAttribute","type":"uint256","internalType":"uint256"}],"outputs":[{"name":"success","type":"bool","internalType":"bool"}],"stateMutability":"nonpayable"},{"type":"function","name":"onERC721Received","inputs":[{"name":"","type":"address","internalType":"address"},{"name":"","type":"address","internalType":"address"},{"name":"","type":"uint256","internalType":"uint256"},{"name":"","type":"bytes","internalType":"bytes"}],"outputs":[{"name":"","type":"bytes4","internalType":"bytes4"}],"stateMutability":"pure"},{"type":"function","name":"owner","inputs":[],"outputs":[{"name":"","type":"address","internalType":"address"}],"stateMutability":"view"},{"type":"function","name":"renounceOwnership","inputs":[],"outputs":[],"stateMutability":"nonpayable"},{"type":"function","name":"tokens","inputs":[{"name":"","type":"string","internalType":"string"}],"outputs":[{"name":"contractName","type":"string","internalType":"string"},{"name":"contractAddress","type":"address","internalType":"address"},{"name":"tokenType","type":"uint8","internalType":"enum TokenType"},{"name":"tokenId","type":"string","internalType":"string"},{"name":"referenceId","type":"string","internalType":"string"},{"name":"owner","type":"address","internalType":"address"},{"name":"amount","type":"uint256","internalType":"uint256"}],"stateMutability":"view"},{"type":"function","name":"tokensInteractions","inputs":[{"name":"","type":"string","internalType":"string"},{"name":"","type":"uint8","internalType":"enum InteractionType"}],"outputs":[{"name":"interactionType","type":"uint8","internalType":"enum InteractionType"},{"name":"available","type":"bool","internalType":"bool"}],"stateMutability":"view"},{"type":"function","name":"transferOwnership","inputs":[{"name":"newOwner","type":"address","internalType":"address"}],"outputs":[],"stateMutability":"nonpayable"},{"type":"function","name":"unlock","inputs":[{"name":"tokenId","type":"string","internalType":"string"},{"name":"assetAttribute","type":"uint256","internalType":"uint256"}],"outputs":[{"name":"success","type":"bool","internalType":"bool"}],"stateMutability":"nonpayable"},{"type":"function","name":"unwrap","inputs":[{"name":"tokenId","type":"string","internalType":"string"}],"outputs":[{"name":"success","type":"bool","internalType":"bool"}],"stateMutability":"nonpayable"},{"type":"function","name":"wrap","inputs":[{"name":"contractName","type":"string","internalType":"string"},{"name":"contractAddress","type":"address","internalType":"address"},{"name":"tokenType","type":"uint8","internalType":"enum TokenType"},{"name":"tokenId","type":"string","internalType":"string"},{"name":"referenceId","type":"string","internalType":"string"},{"name":"owner","type":"address","internalType":"address"}],"outputs":[{"name":"wrapSuccess","type":"bool","internalType":"bool"}],"stateMutability":"nonpayable"},{"type":"function","name":"wrap","inputs":[{"name":"contractName","type":"string","internalType":"string"},{"name":"contractAddress","type":"address","internalType":"address"},{"name":"tokenType","type":"uint8","internalType":"enum TokenType"},{"name":"tokenId","type":"string","internalType":"string"},{"name":"referenceId","type":"string","internalType":"string"},{"name":"owner","type":"address","internalType":"address"},{"name":"interactions","type":"tuple[]","internalType":"struct InteractionSignature[]","components":[{"name":"interactionType","type":"uint8","internalType":"enum InteractionType"},{"name":"functionsSignature","type":"string[]","internalType":"string[]"},{"name":"variables","type":"uint8[][]","internalType":"enum AssetParameterIdentifier[][]"},{"name":"available","type":"bool","internalType":"bool"}]}],"outputs":[{"name":"wrapSuccess","type":"bool","internalType":"bool"}],"stateMutability":"nonpayable"},{"type":"event","name":"Approve","inputs":[{"name":"tokenId","type":"string","indexed":true,"internalType":"string"},{"name":"spender","type":"address","indexed":false,"internalType":"address"},{"name":"amount","type":"uint256","indexed":false,"internalType":"uint256"}],"anonymous":false},{"type":"event","name":"Assign","inputs":[{"name":"tokenId","type":"string","indexed":true,"internalType":"string"},{"name":"receiver_account","type":"address","indexed":false,"internalType":"address"},{"name":"amount","type":"uint256","indexed":false,"internalType":"uint256"}],"anonymous":false},{"type":"event","name":"Burn","inputs":[{"name":"tokenId","type":"string","indexed":true,"internalType":"string"},{"name":"amount","type":"uint256","indexed":false,"internalType":"uint256"}],"anonymous":false},{"type":"event","name":"Changed","inputs":[{"name":"id","type":"string","indexed":true,"internalType":"string"},{"name":"value","type":"bytes[]","indexed":false,"internalType":"bytes[]"}],"anonymous":false},{"type":"event","name":"Lock","inputs":[{"name":"tokenId","type":"string","indexed":true,"internalType":"string"},{"name":"amount","type":"uint256","indexed":false,"internalType":"uint256"}],"anonymous":false},{"type":"event","name":"Mint","inputs":[{"name":"tokenId","type":"string","indexed":true,"internalType":"string"},{"name":"amount","type":"uint256","indexed":false,"internalType":"uint256"}],"anonymous":false},{"type":"event","name":"OwnershipTransferred","inputs":[{"name":"previousOwner","type":"address","indexed":true,"internalType":"address"},{"name":"newOwner","type":"address","indexed":true,"internalType":"address"}],"anonymous":false},{"type":"event","name":"Unlock","inputs":[{"name":"tokenId","type":"string","indexed":true,"internalType":"string"},{"name":"amount","type":"uint256","indexed":false,"internalType":"uint256"}],"anonymous":false},{"type":"event","name":"Unwrap","inputs":[{"name":"tokenId","type":"string","indexed":true,"internalType":"string"}],"anonymous":false},{"type":"event","name":"Wrap","inputs":[{"name":"tokenId","type":"string","indexed":true,"internalType":"string"},{"name":"contractName","type":"string","indexed":false,"internalType":"string"},{"name":"contractAddress","type":"address","indexed":false,"internalType":"address"},{"name":"tokenType","type":"uint8","indexed":false,"internalType":"enum TokenType"},{"name":"owner","type":"address","indexed":false,"internalType":"address"}],"anonymous":false},{"type":"error","name":"InsuficientAmountLocked","inputs":[{"name":"tokenId","type":"string","internalType":"string"},{"name":"amount","type":"uint256","internalType":"uint256"}]},{"type":"error","name":"OwnableInvalidOwner","inputs":[{"name":"owner","type":"address","internalType":"address"}]},{"type":"error","name":"OwnableUnauthorizedAccount","inputs":[{"name":"account","type":"address","internalType":"address"}]},{"type":"error","name":"TokenAlreadyWrapped","inputs":[{"name":"tokenId","type":"string","internalType":"string"}]},{"type":"error","name":"TokenLocked","inputs":[{"name":"tokenId","type":"string","internalType":"string"}]},{"type":"error","name":"TokenNotAvailable","inputs":[{"name":"tokenId","type":"string","internalType":"string"}]},{"type":"error","name":"TokenNotSupported","inputs":[{"name":"tokenId","type":"string","internalType":"string"}]}],"bytecode":{"object":"0x60806040523480156200001157600080fd5b5060405162004578380380620045788339810160408190526200003491620000e6565b806001600160a01b0381166200006457604051631e4fbdf760e01b81526000600482015260240160405180910390fd5b6200006f8162000096565b50600580546001600160a01b0319166001600160a01b039290921691909117905562000118565b600080546001600160a01b038381166001600160a01b0319831681178455604051919092169283917f8be0079c531659141344cd1fd0a4f28419497f9722a3daafe3b4186f6b6457e09190a35050565b600060208284031215620000f957600080fd5b81516001600160a01b03811681146200011157600080fd5b9392505050565b61445080620001286000396000f3fe608060405234801561001057600080fd5b50600436106101515760003560e01c8063715018a6116100cd578063d9cf884c11610081578063ea8f547f11610066578063ea8f547f1461034f578063f272660b146103a6578063f2fde38b146103b957600080fd5b8063d9cf884c14610329578063e1efb5961461033c57600080fd5b8063a1bc17c5116100b2578063a1bc17c5146102f0578063b48272cc14610303578063c1733f681461031657600080fd5b8063715018a6146102d55780638da5cb5b146102df57600080fd5b806319d09bc9116101245780634534ba17116101095780634534ba171461029a5780635137b8a7146102ad5780636a0876e0146102c257600080fd5b806319d09bc91461023c578063324980b51461027a57600080fd5b806304c2320b14610156578063056b01ce146101855780631255c189146101a8578063150b7a02146101d3575b600080fd5b61016961016436600461360c565b6103cc565b60405161017c97969594939291906136bb565b60405180910390f35b610198610193366004613727565b6105c5565b604051901515815260200161017c565b6005546101bb906001600160a01b031681565b6040516001600160a01b03909116815260200161017c565b61020b6101e1366004613783565b7f150b7a020000000000000000000000000000000000000000000000000000000095945050505050565b6040517fffffffff00000000000000000000000000000000000000000000000000000000909116815260200161017c565b61019861024a366004613727565b81516020818401810180516003825292820194820194909420919093529091526000908152604090205460ff1681565b61028d610288366004613727565b61091f565b60405161017c919061381e565b6101986102a83660046138c6565b6110a5565b6102b5611500565b60405161017c9190613972565b6101986102d0366004613994565b6115d9565b6102dd6116be565b005b6000546001600160a01b03166101bb565b6101986102fe36600461360c565b6116d2565b610198610311366004613727565b611919565b61028d61032436600461360c565b611d5c565b610198610337366004613727565b611d9f565b61019861034a366004613727565b61221c565b61039861035d366004613a5c565b8151602081840181018051600282529282019482019490942091909352909152600090815260409020805460039091015460ff918216911682565b60405161017c929190613aba565b6101986103b4366004613d84565b612551565b6102dd6103c7366004613e63565b612882565b80516020818301810180516001825292820191909301209152805481906103f290613e7e565b80601f016020809104026020016040519081016040528092919081815260200182805461041e90613e7e565b801561046b5780601f106104405761010080835404028352916020019161046b565b820191906000526020600020905b81548152906001019060200180831161044e57829003601f168201915b50505050600183015460028401805493946001600160a01b03831694600160a01b90930460ff1693509161049e90613e7e565b80601f01602080910402602001604051908101604052809291908181526020018280546104ca90613e7e565b80156105175780601f106104ec57610100808354040283529160200191610517565b820191906000526020600020905b8154815290600101906020018083116104fa57829003601f168201915b50505050509080600301805461052c90613e7e565b80601f016020809104026020016040519081016040528092919081815260200182805461055890613e7e565b80156105a55780601f1061057a576101008083540402835291602001916105a5565b820191906000526020600020905b81548152906001019060200180831161058857829003601f168201915b50505050600483015460059093015491926001600160a01b031691905087565b60006105cf6128d9565b60006001600160a01b03166001846040516105ea9190613eb8565b908152604051908190036020019020600101546001600160a01b03160361062f578260405163c0bab25f60e01b81526004016106269190613ed4565b60405180910390fd5b6000821161067f5760405162461bcd60e51b815260206004820152601760248201527f496e76616c6964206173736574206174747269627574650000000000000000006044820152606401610626565b60006001846040516106919190613eb8565b90815260405190819003602001902060019081015460ff600160a01b9091041691508160028111156106c5576106c5613691565b0361074b576106d68460008561291f565b6107225760405162461bcd60e51b815260206004820152601660248201527f6d696e742061737365742063616c6c206661696c6564000000000000000000006044820152606401610626565b826001856040516107339190613eb8565b908152604051908190036020019020600501556108ca565b600281600281111561075f5761075f613691565b036108af576003846040516107749190613eb8565b90815260408051602092819003830190206000868152925290205460ff16156107df5760405162461bcd60e51b815260206004820181905260248201527f556e697175652044657363726970746f7220616c7265616479206578697374736044820152606401610626565b6107eb8460008561291f565b6108375760405162461bcd60e51b815260206004820152601660248201527f6d696e742061737365742063616c6c206661696c6564000000000000000000006044820152606401610626565b600180856040516108489190613eb8565b908152602001604051809103902060050160008282546108689190613efd565b9250508190555060016003856040516108819190613eb8565b9081526040805160209281900383019020600087815292529020805460ff19169115159190911790556108ca565b8360405163c16fc3ad60e01b81526004016106269190613ed4565b836040516108d89190613eb8565b604051908190038120848252907f0a4e1e5035320483d096cf114513007c4eda3853a4dca806da2d9faec60470a6906020015b60405180910390a260019150505b92915050565b6040805160e0810182526060808252600060208301819052928201839052808201819052608082015260a0810182905260c081019190915260006001846040516109699190613eb8565b90815260405190819003602001902060019081015460ff600160a01b90910416915081600281111561099d5761099d613691565b03610bf1576001846040516109b29190613eb8565b90815260200160405180910390206040518060e00160405290816000820180546109db90613e7e565b80601f0160208091040260200160405190810160405280929190818152602001828054610a0790613e7e565b8015610a545780601f10610a2957610100808354040283529160200191610a54565b820191906000526020600020905b815481529060010190602001808311610a3757829003601f168201915b505050918352505060018201546001600160a01b0381166020830152604090910190600160a01b900460ff166002811115610a9157610a91613691565b6002811115610aa257610aa2613691565b8152602001600282018054610ab690613e7e565b80601f0160208091040260200160405190810160405280929190818152602001828054610ae290613e7e565b8015610b2f5780601f10610b0457610100808354040283529160200191610b2f565b820191906000526020600020905b815481529060010190602001808311610b1257829003601f168201915b50505050508152602001600382018054610b4890613e7e565b80601f0160208091040260200160405190810160405280929190818152602001828054610b7490613e7e565b8015610bc15780601f10610b9657610100808354040283529160200191610bc1565b820191906000526020600020905b815481529060010190602001808311610ba457829003601f168201915b505050918352505060048201546001600160a01b0316602082015260059091015460409091015291506109199050565b6002816002811115610c0557610c05613691565b0361109e57600384604051610c1a9190613eb8565b90815260408051602092819003830190206000868152925290205460ff1615610e6d576040518060e00160405280600186604051610c589190613eb8565b9081526040519081900360200190208054610c7290613e7e565b80601f0160208091040260200160405190810160405280929190818152602001828054610c9e90613e7e565b8015610ceb5780601f10610cc057610100808354040283529160200191610ceb565b820191906000526020600020905b815481529060010190602001808311610cce57829003601f168201915b50505050508152602001600186604051610d059190613eb8565b908152602001604051809103902060010160009054906101000a90046001600160a01b03166001600160a01b03168152602001600186604051610d489190613eb8565b9081526040519081900360200190206001015460ff600160a01b909104166002811115610d7757610d77613691565b8152602001858152602001600186604051610d929190613eb8565b90815260200160405180910390206003018054610dae90613e7e565b80601f0160208091040260200160405190810160405280929190818152602001828054610dda90613e7e565b8015610e275780601f10610dfc57610100808354040283529160200191610e27565b820191906000526020600020905b815481529060010190602001808311610e0a57829003601f168201915b50505050508152602001600186604051610e419190613eb8565b90815260405160209181900382019020600401546001600160a01b031682520184905291506109199050565b6040518060e00160405280600186604051610e889190613eb8565b9081526040519081900360200190208054610ea290613e7e565b80601f0160208091040260200160405190810160405280929190818152602001828054610ece90613e7e565b8015610f1b5780601f10610ef057610100808354040283529160200191610f1b565b820191906000526020600020905b815481529060010190602001808311610efe57829003601f168201915b50505050508152602001600186604051610f359190613eb8565b908152602001604051809103902060010160009054906101000a90046001600160a01b03166001600160a01b03168152602001600186604051610f789190613eb8565b9081526040519081900360200190206001015460ff600160a01b909104166002811115610fa757610fa7613691565b8152602001858152602001600186604051610fc29190613eb8565b90815260200160405180910390206003018054610fde90613e7e565b80601f016020809104026020016040519081016040528092919081815260200182805461100a90613e7e565b80156110575780601f1061102c57610100808354040283529160200191611057565b820191906000526020600020905b81548152906001019060200180831161103a57829003601f168201915b505050505081526020016001866040516110719190613eb8565b90815260405160209181900382019020600401546001600160a01b03168252600091015291506109199050565b5092915050565b60006110af6128d9565b60006001600160a01b03166001856040516110ca9190613eb8565b908152604051908190036020019020600101546001600160a01b031603611106578360405163c0bab25f60e01b81526004016106269190613ed4565b600082116111565760405162461bcd60e51b815260206004820152601760248201527f496e76616c6964206173736574206174747269627574650000000000000000006044820152606401610626565b60006001856040516111689190613eb8565b90815260405190819003602001902060019081015460ff600160a01b90910416915081600281111561119c5761119c613691565b036112a757826001866040516111b29190613eb8565b90815260200160405180910390206005015410156112125760405162461bcd60e51b815260206004820181905260248201527f61737369676e206173736574206173736574206973206e6f74206c6f636b65646044820152606401610626565b61121f8560028587612936565b61126b5760405162461bcd60e51b815260206004820152601860248201527f61737369676e2061737365742063616c6c206661696c656400000000000000006044820152606401610626565b8260018660405161127c9190613eb8565b9081526020016040518091039020600501600082825461129c9190613f10565b9091555061149e9050565b60028160028111156112bb576112bb613691565b036114835760006001866040516112d29190613eb8565b908152602001604051809103902060050154116113315760405162461bcd60e51b815260206004820181905260248201527f41737369676e206e6674202d206173736574206973206e6f74206c6f636b65646044820152606401610626565b6003856040516113419190613eb8565b908152604080519182900360209081019092206000868152925290205460ff1615156001146113b25760405162461bcd60e51b815260206004820181905260248201527f556e697175652044657363726970746f7220646f6573206e6f742065786973746044820152606401610626565b6113bf8560028587612936565b61140b5760405162461bcd60e51b815260206004820152601660248201527f61737369676e206e66742063616c6c206661696c6564000000000000000000006044820152606401610626565b6001808660405161141c9190613eb8565b9081526020016040518091039020600501600082825461143c9190613f10565b9250508190555060006003866040516114559190613eb8565b9081526040805160209281900383019020600087815292529020805460ff191691151591909117905561149e565b8460405163c16fc3ad60e01b81526004016106269190613ed4565b846040516114ac9190613eb8565b604080519182900382206001600160a01b038716835260208301869052917f0b3112bdbedc0251766a323a5c6ad4df77174bbc08bd61b944815ad9efe8d54c910160405180910390a2506001949350505050565b60606004805480602002602001604051908101604052809291908181526020016000905b828210156115d057838290600052602060002001805461154390613e7e565b80601f016020809104026020016040519081016040528092919081815260200182805461156f90613e7e565b80156115bc5780601f10611591576101008083540402835291602001916115bc565b820191906000526020600020905b81548152906001019060200180831161159f57829003601f168201915b505050505081526020019060010190611524565b50505050905090565b60006115e36128d9565b3063f272660b888888888888600060405190808252806020026020018201604052801561164d57816020015b61163a6040805160808101909152806000815260606020820181905260408201819052600091015290565b81526020019060019003908161160f5790505b506040518863ffffffff1660e01b81526004016116709796959493929190613f23565b6020604051808303816000875af115801561168f573d6000803e3d6000fd5b505050506040513d601f19601f820116820180604052508101906116b391906140c4565b979650505050505050565b6116c66128d9565b6116d06000612c52565b565b60006116dc6128d9565b60006001600160a01b03166001836040516116f79190613eb8565b908152604051908190036020019020600101546001600160a01b031603611733578160405163c0bab25f60e01b81526004016106269190613ed4565b60006001836040516117459190613eb8565b908152602001604051809103902060050154111561179157816040517fb7d2c10a0000000000000000000000000000000000000000000000000000000081526004016106269190613ed4565b6118436001836040516117a49190613eb8565b908152602001604051809103902060020180546117c090613e7e565b80601f01602080910402602001604051908101604052809291908181526020018280546117ec90613e7e565b80156118395780601f1061180e57610100808354040283529160200191611839565b820191906000526020600020905b81548152906001019060200180831161181c57829003601f168201915b5050505050612caf565b6001826040516118539190613eb8565b908152604051908190036020019020600061186e828261331f565b60018201805474ffffffffffffffffffffffffffffffffffffffffff1916905561189c60028301600061331f565b6118aa60038301600061331f565b5060048101805473ffffffffffffffffffffffffffffffffffffffff1916905560006005909101556040516118e0908390613eb8565b604051908190038120907f3855d31914452a5e7361730662e60834555d7cb26d380140894d85fd0d13b85490600090a25060015b919050565b60006119236128d9565b60006001600160a01b031660018460405161193e9190613eb8565b908152604051908190036020019020600101546001600160a01b03160361197a578260405163c0bab25f60e01b81526004016106269190613ed4565b600082116119ca5760405162461bcd60e51b815260206004820152601760248201527f496e76616c6964206173736574206174747269627574650000000000000000006044820152606401610626565b60006001846040516119dc9190613eb8565b90815260405190819003602001902060019081015460ff600160a01b909104169150816002811115611a1057611a10613691565b03611b1a5782600185604051611a269190613eb8565b9081526020016040518091039020600501541015611a865760405162461bcd60e51b815260206004820152601e60248201527f6275726e206173736574206173736574206973206e6f74206c6f636b656400006044820152606401610626565b611a928460018561291f565b611ade5760405162461bcd60e51b815260206004820152601660248201527f6275726e2061737365742063616c6c206661696c6564000000000000000000006044820152606401610626565b82600185604051611aef9190613eb8565b90815260200160405180910390206005016000828254611b0f9190613f10565b90915550611d179050565b6002816002811115611b2e57611b2e613691565b036108af576000600185604051611b459190613eb8565b90815260200160405180910390206005015411611bca5760405162461bcd60e51b815260206004820152602360248201527f547279696e6720746f206275726e20616e20756e6163636f756e74656420417360448201527f73657400000000000000000000000000000000000000000000000000000000006064820152608401610626565b600384604051611bda9190613eb8565b908152604080519182900360209081019092206000868152925290205460ff161515600114611c4b5760405162461bcd60e51b815260206004820181905260248201527f556e697175652044657363726970746f7220646f6573206e6f742065786973746044820152606401610626565b611c578460018561291f565b611ca35760405162461bcd60e51b815260206004820152601660248201527f6275726e2061737365742063616c6c206661696c6564000000000000000000006044820152606401610626565b60018085604051611cb49190613eb8565b90815260200160405180910390206005016000828254611cd49190613f10565b925050819055506000600385604051611ced9190613eb8565b9081526040805160209281900383019020600087815292529020805460ff19169115159190911790555b83604051611d259190613eb8565b604051908190038120848252907fa0237080cf48d9e1fbb9ef1f82e33b11170d047b2b540a73b457d0916d53ee999060200161090b565b6040805160e0810182526060808252600060208301819052928201839052808201819052608082015260a0810182905260c081019190915261091982600061091f565b6000611da96128d9565b60006001600160a01b0316600184604051611dc49190613eb8565b908152604051908190036020019020600101546001600160a01b031603611e00578260405163c0bab25f60e01b81526004016106269190613ed4565b60008211611e505760405162461bcd60e51b815260206004820152601760248201527f496e76616c6964206173736574206174747269627574650000000000000000006044820152606401610626565b6000600184604051611e629190613eb8565b90815260405190819003602001902060019081015460ff600160a01b909104169150816002811115611e9657611e96613691565b03611fb45782600185604051611eac9190613eb8565b9081526020016040518091039020600501541015611efa5783836040517fed579e600000000000000000000000000000000000000000000000000000000081526004016106269291906140e1565b611f068460058561291f565b611f785760405162461bcd60e51b815260206004820152602160248201527f556e6c6f636b2066756e6769626c652061737365742063616c6c206661696c6560448201527f64000000000000000000000000000000000000000000000000000000000000006064820152608401610626565b82600185604051611f899190613eb8565b90815260200160405180910390206005016000828254611fa99190613f10565b909155506121d79050565b6002816002811115611fc857611fc8613691565b036108af57600384604051611fdd9190613eb8565b908152604080519182900360209081019092206000868152925290205460ff16151560011461204e5760405162461bcd60e51b815260206004820152601060248201527f546f6b656e204e6f74204c6f636b6564000000000000000000000000000000006044820152606401610626565b60006001856040516120609190613eb8565b908152602001604051809103902060050154116120e55760405162461bcd60e51b815260206004820152603360248201527f547279696e6720746f20556e6c6f636b20616e2061737365742074686174206960448201527f73206e6f74206163636f756e74656420666f72000000000000000000000000006064820152608401610626565b6120f18460058561291f565b6121635760405162461bcd60e51b815260206004820152602560248201527f556e6c6f636b206e6f6e2066756e6769626c652061737365742063616c6c206660448201527f61696c65640000000000000000000000000000000000000000000000000000006064820152608401610626565b600180856040516121749190613eb8565b908152602001604051809103902060050160008282546121949190613f10565b9250508190555060006003856040516121ad9190613eb8565b9081526040805160209281900383019020600087815292529020805460ff19169115159190911790555b836040516121e59190613eb8565b604051908190038120848252907f7b3c894115251262b174b7aeab24a57e00bc2e8853d1ef2f57a217edaa69c06e9060200161090b565b60006122266128d9565b60006001600160a01b03166001846040516122419190613eb8565b908152604051908190036020019020600101546001600160a01b03160361227d578260405163c0bab25f60e01b81526004016106269190613ed4565b600082116122cd5760405162461bcd60e51b815260206004820152601760248201527f496e76616c6964206173736574206174747269627574650000000000000000006044820152606401610626565b60006001846040516122df9190613eb8565b90815260405190819003602001902060019081015460ff600160a01b90910416915081600281111561231357612313613691565b036123ac576123248460048561291f565b6123705760405162461bcd60e51b815260206004820152601160248201527f546f6b656e204c6f636b204661696c65640000000000000000000000000000006044820152606401610626565b826001856040516123819190613eb8565b908152602001604051809103902060050160008282546123a19190613efd565b9091555061250c9050565b60028160028111156123c0576123c0613691565b036108af576003846040516123d59190613eb8565b90815260408051602092819003830190206000868152925290205460ff16156124405760405162461bcd60e51b815260206004820152601460248201527f546f6b656e20416c7265616479204c6f636b65640000000000000000000000006044820152606401610626565b61244c8460048561291f565b6124985760405162461bcd60e51b815260206004820152601160248201527f546f6b656e204c6f636b204661696c65640000000000000000000000000000006044820152606401610626565b600180856040516124a99190613eb8565b908152602001604051809103902060050160008282546124c99190613efd565b9250508190555060016003856040516124e29190613eb8565b9081526040805160209281900383019020600087815292529020805460ff19169115159190911790555b8360405161251a9190613eb8565b604051908190038120848252907fc480ef4e831b2ca5eb0b2f95c6564d9a56af5b3fe2383393008e3f1708dc97979060200161090b565b600061255b6128d9565b60006001600160a01b03166001866040516125769190613eb8565b908152604051908190036020019020600101546001600160a01b0316146125cb57846040517f67ab23440000000000000000000000000000000000000000000000000000000081526004016106269190613ed4565b6125d58583612e0d565b6002856040516125e59190613eb8565b9081526040805160209281900383019020600360008181529190935220015460ff161561268957612617856003612f2d565b6126895760405162461bcd60e51b815260206004820152603c60248201527f436f6e747261637420646f6573206e6f742068617665207065726d697373696f60448201527f6e20746f20696e74657261637420776974682074686520746f6b656e000000006064820152608401610626565b6040518060e00160405280898152602001886001600160a01b031681526020018760028111156126bb576126bb613691565b8152602001868152602001858152602001846001600160a01b0316815260200160008152506001866040516126f09190613eb8565b9081526040519081900360200190208151819061270d9082614151565b5060208201516001820180546001600160a01b0390921673ffffffffffffffffffffffffffffffffffffffff1983168117825560408501519274ffffffffffffffffffffffffffffffffffffffffff191617600160a01b83600281111561277657612776613691565b02179055506060820151600282019061278f9082614151565b50608082015160038201906127a49082614151565b5060a08201516004828101805473ffffffffffffffffffffffffffffffffffffffff19166001600160a01b039093169290921790915560c09092015160059091015580546001810182556000919091527f8a35acfbc15ff81a39ae7d344fd709f28e8600b4aa8c65c6b64bfe7fe36bd19b016128208682614151565b508460405161282f9190613eb8565b60405180910390207f1455a30f034090309f76768ab435a6bd3c547427fc31dbe48477cfb5b9f47dda8989898760405161286c9493929190614211565b60405180910390a2506001979650505050505050565b61288a6128d9565b6001600160a01b0381166128cd576040517f1e4fbdf700000000000000000000000000000000000000000000000000000000815260006004820152602401610626565b6128d681612c52565b50565b6000546001600160a01b031633146116d0576040517f118cdaa7000000000000000000000000000000000000000000000000000000008152336004820152602401610626565b600061292e8484846000612936565b949350505050565b60006002856040516129489190613eb8565b9081526020016040518091039020600085600681111561296a5761296a613691565b600681111561297b5761297b613691565b815260208101919091526040016000206003015460ff1661299e5750600061292e565b60005b6002866040516129b19190613eb8565b908152602001604051809103902060008660068111156129d3576129d3613691565b60068111156129e4576129e4613691565b8152602081019190915260400160002060010154811015612c46576000600287604051612a119190613eb8565b90815260200160405180910390206000876006811115612a3357612a33613691565b6006811115612a4457612a44613691565b81526020019081526020016000206001018281548110612a6657612a66614255565b90600052602060002001604051602001612a80919061426b565b6040516020818303038152906040528051906020012090506000612b9c82612b9760028b604051612ab19190613eb8565b908152602001604051809103902060008b6006811115612ad357612ad3613691565b6006811115612ae457612ae4613691565b81526020019081526020016000206002018681548110612b0657612b06614255565b90600052602060002001805480602002602001604051908101604052809291908181526020018280548015612b8a57602002820191906000526020600020906000905b82829054906101000a900460ff166007811115612b6857612b68613691565b815260206001928301818104948501949093039092029101808411612b495790505b50505050508b898b612f43565b613260565b90506000600189604051612bb09190613eb8565b908152604051908190036020018120600101546001600160a01b031690612bd8908490613eb8565b6000604051808303816000865af19150503d8060008114612c15576040519150601f19603f3d011682016040523d82523d6000602084013e612c1a565b606091505b5050905080612c3057600094505050505061292e565b5050508080612c3e906142e1565b9150506129a1565b50600195945050505050565b600080546001600160a01b0383811673ffffffffffffffffffffffffffffffffffffffff19831681178455604051919092169283917f8be0079c531659141344cd1fd0a4f28419497f9722a3daafe3b4186f6b6457e09190a35050565b60005b600454811015612e0957612d6b60048281548110612cd257612cd2614255565b906000526020600020018054612ce790613e7e565b80601f0160208091040260200160405190810160405280929190818152602001828054612d1390613e7e565b8015612d605780601f10612d3557610100808354040283529160200191612d60565b820191906000526020600020905b815481529060010190602001808311612d4357829003601f168201915b5050505050836132fa565b15612df75760048054612d8090600190613f10565b81548110612d9057612d90614255565b9060005260206000200160048281548110612dad57612dad614255565b906000526020600020019081612dc391906142fa565b506004805480612dd557612dd56143d5565b600190038181906000526020600020016000612df1919061331f565b90555050565b80612e01816142e1565b915050612cb2565b5050565b60005b8151811015612f2857818181518110612e2b57612e2b614255565b6020026020010151600284604051612e439190613eb8565b90815260200160405180910390206000848481518110612e6557612e65614255565b6020026020010151600001516006811115612e8257612e82613691565b6006811115612e9357612e93613691565b8152602081019190915260400160002081518154829060ff19166001836006811115612ec157612ec1613691565b02179055506020828101518051612ede9260018501920190613359565b5060408201518051612efa9160028401916020909101906133af565b50606091909101516003909101805460ff191691151591909117905580612f20816142e1565b915050612e10565b505050565b6000612f3c8383600080612936565b9392505050565b60606000855167ffffffffffffffff811115612f6157612f6161352c565b604051908082528060200260200182016040528015612f9457816020015b6060815260200190600190039081612f7f5790505b50905060005b8651811015613256576005878281518110612fb757612fb7614255565b60200260200101516007811115612fd057612fd0613691565b036130125760408051306020820152015b60405160208183030381529060405282828151811061300257613002614255565b6020026020010181905250613244565b600287828151811061302657613026614255565b6020026020010151600781111561303f5761303f613691565b036130555785604051602001612fe19190613ed4565b600487828151811061306957613069614255565b6020026020010151600781111561308257613082613691565b0361309857604080516020810186905201612fe1565b60038782815181106130ac576130ac614255565b602002602001015160078111156130c5576130c5613691565b03613103576001866040516130da9190613eb8565b908152604080519182900360209081018320600401546001600160a01b03169083015201612fe1565b600087828151811061311757613117614255565b6020026020010151600781111561313057613130613691565b0361316e576001866040516131459190613eb8565b908152604080519182900360209081018320600101546001600160a01b03169083015201612fe1565b600687828151811061318257613182614255565b6020026020010151600781111561319b5761319b613691565b036131b957604080516001600160a01b038716602082015201612fe1565b60078782815181106131cd576131cd614255565b602002602001015160078111156131e6576131e6613691565b036131fc57604080516020810186905201612fe1565b60405162461bcd60e51b815260206004820152601660248201527f5661726961626c65206e6f7420737570706f72746564000000000000000000006044820152606401610626565b8061324e816142e1565b915050612f9a565b5095945050505050565b604080517fffffffff000000000000000000000000000000000000000000000000000000008416602082015281516004818303018152602490910190915260005b825181101561109e57818382815181106132bd576132bd614255565b60200260200101516040516020016132d69291906143eb565b604051602081830303815290604052915080806132f2906142e1565b9150506132a1565b600081518351148015612f3c5750508051602091820120825192909101919091201490565b50805461332b90613e7e565b6000825580601f1061333b575050565b601f0160209004906000526020600020908101906128d69190613408565b82805482825590600052602060002090810192821561339f579160200282015b8281111561339f578251829061338f9082614151565b5091602001919060010190613379565b506133ab92915061341d565b5090565b8280548282559060005260206000209081019282156133fc579160200282015b828111156133fc57825180516133ec91849160209091019061343a565b50916020019190600101906133cf565b506133ab9291506134ea565b5b808211156133ab5760008155600101613409565b808211156133ab576000613431828261331f565b5060010161341d565b82805482825590600052602060002090601f016020900481019282156134de5791602002820160005b838211156134af57835183826101000a81548160ff0219169083600781111561348e5761348e613691565b02179055509260200192600101602081600001049283019260010302613463565b80156134dc5782816101000a81549060ff02191690556001016020816000010492830192600103026134af565b505b506133ab929150613408565b808211156133ab5760006134fe8282613507565b506001016134ea565b50805460008255601f0160209004906000526020600020908101906128d69190613408565b634e487b7160e01b600052604160045260246000fd5b6040516080810167ffffffffffffffff811182821017156135655761356561352c565b60405290565b604051601f8201601f1916810167ffffffffffffffff811182821017156135945761359461352c565b604052919050565b600082601f8301126135ad57600080fd5b813567ffffffffffffffff8111156135c7576135c761352c565b6135da601f8201601f191660200161356b565b8181528460208386010111156135ef57600080fd5b816020850160208301376000918101602001919091529392505050565b60006020828403121561361e57600080fd5b813567ffffffffffffffff81111561363557600080fd5b61292e8482850161359c565b60005b8381101561365c578181015183820152602001613644565b50506000910152565b6000815180845261367d816020860160208601613641565b601f01601f19169290920160200192915050565b634e487b7160e01b600052602160045260246000fd5b600381106136b7576136b7613691565b9052565b60e0815260006136ce60e083018a613665565b6001600160a01b03808a1660208501526136eb604085018a6136a7565b83820360608501526136fd8289613665565b915083820360808501526137118288613665565b951660a0840152505060c0015295945050505050565b6000806040838503121561373a57600080fd5b823567ffffffffffffffff81111561375157600080fd5b61375d8582860161359c565b95602094909401359450505050565b80356001600160a01b038116811461191457600080fd5b60008060008060006080868803121561379b57600080fd5b6137a48661376c565b94506137b26020870161376c565b935060408601359250606086013567ffffffffffffffff808211156137d657600080fd5b818801915088601f8301126137ea57600080fd5b8135818111156137f957600080fd5b89602082850101111561380b57600080fd5b9699959850939650602001949392505050565b602081526000825160e0602084015261383b610100840182613665565b905060208401516001600160a01b0380821660408601526040860151915061386660608601836136a7565b60608601519150601f19808685030160808701526138848484613665565b935060808701519250808685030160a0870152506138a28383613665565b92508060a08701511660c0860152505060c084015160e08401528091505092915050565b6000806000606084860312156138db57600080fd5b833567ffffffffffffffff8111156138f257600080fd5b6138fe8682870161359c565b93505061390d6020850161376c565b9150604084013590509250925092565b600081518084526020808501808196508360051b8101915082860160005b85811015613965578284038952613953848351613665565b9885019893509084019060010161393b565b5091979650505050505050565b602081526000612f3c602083018461391d565b80356003811061191457600080fd5b60008060008060008060c087890312156139ad57600080fd5b863567ffffffffffffffff808211156139c557600080fd5b6139d18a838b0161359c565b97506139df60208a0161376c565b96506139ed60408a01613985565b95506060890135915080821115613a0357600080fd5b613a0f8a838b0161359c565b94506080890135915080821115613a2557600080fd5b50613a3289828a0161359c565b925050613a4160a0880161376c565b90509295509295509295565b80356007811061191457600080fd5b60008060408385031215613a6f57600080fd5b823567ffffffffffffffff811115613a8657600080fd5b613a928582860161359c565b925050613aa160208401613a4d565b90509250929050565b600781106136b7576136b7613691565b60408101613ac88285613aaa565b82151560208301529392505050565b600067ffffffffffffffff821115613af157613af161352c565b5060051b60200190565b600082601f830112613b0c57600080fd5b81356020613b21613b1c83613ad7565b61356b565b828152600592831b8501820192828201919087851115613b4057600080fd5b8387015b85811015613be557803567ffffffffffffffff811115613b645760008081fd5b8801603f81018a13613b765760008081fd5b858101356040613b88613b1c83613ad7565b82815291851b8301810191888101908d841115613ba55760008081fd5b938201935b83851015613bd4578435925060088310613bc45760008081fd5b8282529389019390890190613baa565b885250505093850193508401613b44565b5090979650505050505050565b80151581146128d657600080fd5b803561191481613bf2565b600082601f830112613c1c57600080fd5b613c29613b1c8335613ad7565b82358082526020808301929160051b85010185811115613c4857600080fd5b602085015b81811015613d795767ffffffffffffffff8082351115613c6c57600080fd5b813587016080818a03601f19011215613c8457600080fd5b613c8c613542565b613c9860208301613a4d565b8152604082013583811115613cac57600080fd5b8201603f81018b13613cbd57600080fd5b6020810135613cce613b1c82613ad7565b81815260059190911b82016040019060208101908d831115613cef57600080fd5b604084015b83811015613d28578781351115613d0a57600080fd5b613d1a8f6040833588010161359c565b835260209283019201613cf4565b506020850152505050606082013583811115613d4357600080fd5b613d528b602083860101613afb565b604083015250613d6460808301613c00565b60608201528652505060209384019301613c4d565b509095945050505050565b600080600080600080600060e0888a031215613d9f57600080fd5b873567ffffffffffffffff80821115613db757600080fd5b613dc38b838c0161359c565b9850613dd160208b0161376c565b9750613ddf60408b01613985565b965060608a0135915080821115613df557600080fd5b613e018b838c0161359c565b955060808a0135915080821115613e1757600080fd5b613e238b838c0161359c565b9450613e3160a08b0161376c565b935060c08a0135915080821115613e4757600080fd5b50613e548a828b01613c0b565b91505092959891949750929550565b600060208284031215613e7557600080fd5b612f3c8261376c565b600181811c90821680613e9257607f821691505b602082108103613eb257634e487b7160e01b600052602260045260246000fd5b50919050565b60008251613eca818460208701613641565b9190910192915050565b602081526000612f3c6020830184613665565b634e487b7160e01b600052601160045260246000fd5b8082018082111561091957610919613ee7565b8181038181111561091957610919613ee7565b60e081526000613f3660e083018a613665565b6001600160a01b0389166020840152613f5260408401896136a7565b8281036060840152613f648188613665565b90508281036080840152613f788187613665565b90506001600160a01b03851660a084015282810360c084015280845180835260208301915060208160051b8401016020870160005b838110156140b157601f19808785030186528251613fcc858251613aaa565b602081015160806020870152613fe5608087018261391d565b90506040820151868203604088015281815180845260208401915060208160051b85010160208401935060005b8281101561407a57858203880184528451805180845260209182019184019060005b818110156140625783516008811061404e5761404e613691565b835260209384019390920191600101614034565b50506020968701969590950194925050600101614012565b506060860151965061409060608b018815159052565b80995050505050505050602082019150602085019450600181019050613fad565b50909d9c50505050505050505050505050565b6000602082840312156140d657600080fd5b8151612f3c81613bf2565b6040815260006140f46040830185613665565b90508260208301529392505050565b601f821115612f2857600081815260208120601f850160051c8101602086101561412a5750805b601f850160051c820191505b8181101561414957828155600101614136565b505050505050565b815167ffffffffffffffff81111561416b5761416b61352c565b61417f816141798454613e7e565b84614103565b602080601f8311600181146141b4576000841561419c5750858301515b600019600386901b1c1916600185901b178555614149565b600085815260208120601f198616915b828110156141e3578886015182559484019460019091019084016141c4565b50858210156142015787850151600019600388901b60f8161c191681555b5050505050600190811b01905550565b6080815260006142246080830187613665565b90506001600160a01b03808616602084015261424360408401866136a7565b80841660608401525095945050505050565b634e487b7160e01b600052603260045260246000fd5b600080835461427981613e7e565b6001828116801561429157600181146142a6576142d5565b60ff19841687528215158302870194506142d5565b8760005260208060002060005b858110156142cc5781548a8201529084019082016142b3565b50505082870194505b50929695505050505050565b6000600182016142f3576142f3613ee7565b5060010190565b818103614305575050565b61430f8254613e7e565b67ffffffffffffffff8111156143275761432761352c565b614335816141798454613e7e565b6000601f82116001811461436957600083156143515750848201545b600019600385901b1c1916600184901b1784556143ce565b600085815260209020601f19841690600086815260209020845b838110156143a35782860154825560019586019590910190602001614383565b50858310156143c15781850154600019600388901b60f8161c191681555b50505060018360011b0184555b5050505050565b634e487b7160e01b600052603160045260246000fd5b600083516143fd818460208801613641565b835190830190614411818360208801613641565b0194935050505056fea2646970667358221220cd0ad9e1622c337c44bf6671556101032f3a1e91738d40d0b8f6c054e1a27b4564736f6c63430008140033","linkReferences":{}},"methodIdentifiers":{"NFT_IDs(string,uint256)":"19d09bc9","assign(string,address,uint256)":"4534ba17","bridge_address()":"1255c189","burn(string,uint256)":"b48272cc","getAllAssetsIDs()":"5137b8a7","getToken(string)":"c1733f68","getToken(string,uint256)":"324980b5","lock(string,uint256)":"e1efb596","mint(string,uint256)":"056b01ce","onERC721Received(address,address,uint256,bytes)":"150b7a02","owner()":"8da5cb5b","renounceOwnership()":"715018a6","tokens(string)":"04c2320b","tokensInteractions(string,uint8)":"ea8f547f","transferOwnership(address)":"f2fde38b","unlock(string,uint256)":"d9cf884c","unwrap(string)":"a1bc17c5","wrap(string,address,uint8,string,string,address)":"6a0876e0","wrap(string,address,uint8,string,string,address,(uint8,string[],uint8[][],bool)[])":"f272660b"},"id":7}