{"abi":[{"type":"constructor","inputs":[{"name":"_owner","type":"address","internalType":"address"}],"stateMutability":"nonpayable"},{"type":"function","name":"BRIDGE_ROLE","inputs":[],"outputs":[{"name":"","type":"bytes32","internalType":"bytes32"}],"stateMutability":"view"},{"type":"function","name":"DEFAULT_ADMIN_ROLE","inputs":[],"outputs":[{"name":"","type":"bytes32","internalType":"bytes32"}],"stateMutability":"view"},{"type":"function","name":"OWNER_ROLE","inputs":[],"outputs":[{"name":"","type":"bytes32","internalType":"bytes32"}],"stateMutability":"view"},{"type":"function","name":"allowance","inputs":[{"name":"owner","type":"address","internalType":"address"},{"name":"spender","type":"address","internalType":"address"}],"outputs":[{"name":"","type":"uint256","internalType":"uint256"}],"stateMutability":"view"},{"type":"function","name":"approve","inputs":[{"name":"spender","type":"address","internalType":"address"},{"name":"amount","type":"uint256","internalType":"uint256"}],"outputs":[{"name":"","type":"bool","internalType":"bool"}],"stateMutability":"nonpayable"},{"type":"function","name":"balanceOf","inputs":[{"name":"account","type":"address","internalType":"address"}],"outputs":[{"name":"","type":"uint256","internalType":"uint256"}],"stateMutability":"view"},{"type":"function","name":"burn","inputs":[{"name":"account","type":"address","internalType":"address"},{"name":"amount","type":"uint256","internalType":"uint256"}],"outputs":[{"name":"success","type":"bool","internalType":"bool"}],"stateMutability":"nonpayable"},{"type":"function","name":"decimals","inputs":[],"outputs":[{"name":"","type":"uint8","internalType":"uint8"}],"stateMutability":"view"},{"type":"function","name":"decreaseAllowance","inputs":[{"name":"spender","type":"address","internalType":"address"},{"name":"subtractedValue","type":"uint256","internalType":"uint256"}],"outputs":[{"name":"","type":"bool","internalType":"bool"}],"stateMutability":"nonpayable"},{"type":"function","name":"getRoleAdmin","inputs":[{"name":"role","type":"bytes32","internalType":"bytes32"}],"outputs":[{"name":"","type":"bytes32","internalType":"bytes32"}],"stateMutability":"view"},{"type":"function","name":"grantBridgeRole","inputs":[{"name":"account","type":"address","internalType":"address"}],"outputs":[{"name":"success","type":"bool","internalType":"bool"}],"stateMutability":"nonpayable"},{"type":"function","name":"grantRole","inputs":[{"name":"role","type":"bytes32","internalType":"bytes32"},{"name":"account","type":"address","internalType":"address"}],"outputs":[],"stateMutability":"nonpayable"},{"type":"function","name":"hasBridgeRole","inputs":[{"name":"account","type":"address","internalType":"address"}],"outputs":[{"name":"success","type":"bool","internalType":"bool"}],"stateMutability":"view"},{"type":"function","name":"hasRole","inputs":[{"name":"role","type":"bytes32","internalType":"bytes32"},{"name":"account","type":"address","internalType":"address"}],"outputs":[{"name":"","type":"bool","internalType":"bool"}],"stateMutability":"view"},{"type":"function","name":"increaseAllowance","inputs":[{"name":"spender","type":"address","internalType":"address"},{"name":"addedValue","type":"uint256","internalType":"uint256"}],"outputs":[{"name":"","type":"bool","internalType":"bool"}],"stateMutability":"nonpayable"},{"type":"function","name":"mint","inputs":[{"name":"account","type":"address","internalType":"address"},{"name":"amount","type":"uint256","internalType":"uint256"}],"outputs":[{"name":"success","type":"bool","internalType":"bool"}],"stateMutability":"nonpayable"},{"type":"function","name":"name","inputs":[],"outputs":[{"name":"","type":"string","internalType":"string"}],"stateMutability":"view"},{"type":"function","name":"renounceRole","inputs":[{"name":"role","type":"bytes32","internalType":"bytes32"},{"name":"account","type":"address","internalType":"address"}],"outputs":[],"stateMutability":"nonpayable"},{"type":"function","name":"revokeRole","inputs":[{"name":"role","type":"bytes32","internalType":"bytes32"},{"name":"account","type":"address","internalType":"address"}],"outputs":[],"stateMutability":"nonpayable"},{"type":"function","name":"supportsInterface","inputs":[{"name":"interfaceId","type":"bytes4","internalType":"bytes4"}],"outputs":[{"name":"","type":"bool","internalType":"bool"}],"stateMutability":"view"},{"type":"function","name":"symbol","inputs":[],"outputs":[{"name":"","type":"string","internalType":"string"}],"stateMutability":"view"},{"type":"function","name":"totalSupply","inputs":[],"outputs":[{"name":"","type":"uint256","internalType":"uint256"}],"stateMutability":"view"},{"type":"function","name":"transfer","inputs":[{"name":"to","type":"address","internalType":"address"},{"name":"amount","type":"uint256","internalType":"uint256"}],"outputs":[{"name":"","type":"bool","internalType":"bool"}],"stateMutability":"nonpayable"},{"type":"function","name":"transferFrom","inputs":[{"name":"from","type":"address","internalType":"address"},{"name":"to","type":"address","internalType":"address"},{"name":"amount","type":"uint256","internalType":"uint256"}],"outputs":[{"name":"","type":"bool","internalType":"bool"}],"stateMutability":"nonpayable"},{"type":"event","name":"Approval","inputs":[{"name":"owner","type":"address","indexed":true,"internalType":"address"},{"name":"spender","type":"address","indexed":true,"internalType":"address"},{"name":"value","type":"uint256","indexed":false,"internalType":"uint256"}],"anonymous":false},{"type":"event","name":"RoleAdminChanged","inputs":[{"name":"role","type":"bytes32","indexed":true,"internalType":"bytes32"},{"name":"previousAdminRole","type":"bytes32","indexed":true,"internalType":"bytes32"},{"name":"newAdminRole","type":"bytes32","indexed":true,"internalType":"bytes32"}],"anonymous":false},{"type":"event","name":"RoleGranted","inputs":[{"name":"role","type":"bytes32","indexed":true,"internalType":"bytes32"},{"name":"account","type":"address","indexed":true,"internalType":"address"},{"name":"sender","type":"address","indexed":true,"internalType":"address"}],"anonymous":false},{"type":"event","name":"RoleRevoked","inputs":[{"name":"role","type":"bytes32","indexed":true,"internalType":"bytes32"},{"name":"account","type":"address","indexed":true,"internalType":"address"},{"name":"sender","type":"address","indexed":true,"internalType":"address"}],"anonymous":false},{"type":"event","name":"Transfer","inputs":[{"name":"from","type":"address","indexed":true,"internalType":"address"},{"name":"to","type":"address","indexed":true,"internalType":"address"},{"name":"value","type":"uint256","indexed":false,"internalType":"uint256"}],"anonymous":false},{"type":"error","name":"noPermission","inputs":[{"name":"adr","type":"address","internalType":"address"}]}],"bytecode":{"object":"0x60806040523480156200001157600080fd5b50604051620019053803806200190583398101604081905262000034916200019d565b6040518060400160405280600b81526020016a0437573746f6d45524332360ac1b8152506040518060400160405280600381526020016204332360ec1b815250816004908162000085919062000274565b50600562000094828262000274565b505050620000c97fb19546dff01e856fb3f010c267a7b1c60363cf8a4664e21cc89c26224620214e82620000fc60201b60201c565b620000f57f52ba824bfabc2bcfcdf7f0edbb486ebb05e1836c90e78047efeb949990f72e5f82620000fc565b5062000340565b6000828152602081815260408083206001600160a01b038516845290915290205460ff1662000199576000828152602081815260408083206001600160a01b03851684529091529020805460ff19166001179055620001583390565b6001600160a01b0316816001600160a01b0316837f2f8788117e7eff1d82e926ec794901d17c78024a50270940304540a733656f0d60405160405180910390a45b5050565b600060208284031215620001b057600080fd5b81516001600160a01b0381168114620001c857600080fd5b9392505050565b634e487b7160e01b600052604160045260246000fd5b600181811c90821680620001fa57607f821691505b6020821081036200021b57634e487b7160e01b600052602260045260246000fd5b50919050565b601f8211156200026f57600081815260208120601f850160051c810160208610156200024a5750805b601f850160051c820191505b818110156200026b5782815560010162000256565b5050505b505050565b81516001600160401b03811115620002905762000290620001cf565b620002a881620002a18454620001e5565b8462000221565b602080601f831160018114620002e05760008415620002c75750858301515b600019600386901b1c1916600185901b1785556200026b565b600085815260208120601f198616915b828110156200031157888601518255948401946001909101908401620002f0565b5085821015620003305787850151600019600388901b60f8161c191681555b5050505050600190811b01905550565b6115b580620003506000396000f3fe608060405234801561001057600080fd5b50600436106101985760003560e01c806391d14854116100e3578063a9059cbb1161008c578063dd62ed3e11610066578063dd62ed3e14610388578063e58378bb146103c1578063ea134071146103e857600080fd5b8063a9059cbb1461033b578063b5bfddea1461034e578063d547741f1461037557600080fd5b8063a217fddf116100bd578063a217fddf1461030d578063a457c2d714610315578063a5e99b8e1461032857600080fd5b806391d14854146102bb57806395d89b41146102f25780639dc29fac146102fa57600080fd5b80632f2ff15d11610145578063395093511161011f578063395093511461026c57806340c10f191461027f57806370a082311461029257600080fd5b80632f2ff15d14610235578063313ce5671461024a57806336568abe1461025957600080fd5b806318160ddd1161017657806318160ddd146101ed57806323b872dd146101ff578063248a9ca31461021257600080fd5b806301ffc9a71461019d57806306fdde03146101c5578063095ea7b3146101da575b600080fd5b6101b06101ab36600461128f565b6103fb565b60405190151581526020015b60405180910390f35b6101cd610494565b6040516101bc91906112f5565b6101b06101e8366004611344565b610526565b6003545b6040519081526020016101bc565b6101b061020d36600461136e565b61053e565b6101f16102203660046113aa565b60009081526020819052604090206001015490565b6102486102433660046113c3565b610562565b005b604051601281526020016101bc565b6102486102673660046113c3565b61058c565b6101b061027a366004611344565b61061d565b6101b061028d366004611344565b61065c565b6101f16102a03660046113ef565b6001600160a01b031660009081526001602052604090205490565b6101b06102c93660046113c3565b6000918252602082815260408084206001600160a01b0393909316845291905290205460ff1690565b6101cd610692565b6101b0610308366004611344565b6106a1565b6101f1600081565b6101b0610323366004611344565b6106d7565b6101b06103363660046113ef565b610781565b6101b0610349366004611344565b6107e2565b6101f17f52ba824bfabc2bcfcdf7f0edbb486ebb05e1836c90e78047efeb949990f72e5f81565b6102486103833660046113c3565b6107f0565b6101f161039636600461140a565b6001600160a01b03918216600090815260026020908152604080832093909416825291909152205490565b6101f17fb19546dff01e856fb3f010c267a7b1c60363cf8a4664e21cc89c26224620214e81565b6101b06103f63660046113ef565b610815565b60007fffffffff0000000000000000000000000000000000000000000000000000000082167f7965db0b00000000000000000000000000000000000000000000000000000000148061048e57507f01ffc9a7000000000000000000000000000000000000000000000000000000007fffffffff000000000000000000000000000000000000000000000000000000008316145b92915050565b6060600480546104a390611434565b80601f01602080910402602001604051908101604052809291908181526020018280546104cf90611434565b801561051c5780601f106104f15761010080835404028352916020019161051c565b820191906000526020600020905b8154815290600101906020018083116104ff57829003601f168201915b5050505050905090565b60003361053481858561089a565b5060019392505050565b60003361054c8582856109f2565b610557858585610a84565b506001949350505050565b60008281526020819052604090206001015461057d81610c9b565b6105878383610ca8565b505050565b6001600160a01b038116331461060f5760405162461bcd60e51b815260206004820152602f60248201527f416363657373436f6e74726f6c3a2063616e206f6e6c792072656e6f756e636560448201527f20726f6c657320666f722073656c66000000000000000000000000000000000060648201526084015b60405180910390fd5b6106198282610d46565b5050565b3360008181526002602090815260408083206001600160a01b0387168452909152812054909190610534908290869061065790879061147e565b61089a565b60007f52ba824bfabc2bcfcdf7f0edbb486ebb05e1836c90e78047efeb949990f72e5f61068881610c9b565b6105348484610dc5565b6060600580546104a390611434565b60007f52ba824bfabc2bcfcdf7f0edbb486ebb05e1836c90e78047efeb949990f72e5f6106cd81610c9b565b6105348484610ea4565b3360008181526002602090815260408083206001600160a01b0387168452909152812054909190838110156107745760405162461bcd60e51b815260206004820152602560248201527f45524332303a2064656372656173656420616c6c6f77616e63652062656c6f7760448201527f207a65726f0000000000000000000000000000000000000000000000000000006064820152608401610606565b610557828686840361089a565b60007fb19546dff01e856fb3f010c267a7b1c60363cf8a4664e21cc89c26224620214e6107ad81610c9b565b6107d77f52ba824bfabc2bcfcdf7f0edbb486ebb05e1836c90e78047efeb949990f72e5f84610ca8565b600191505b50919050565b600033610534818585610a84565b60008281526020819052604090206001015461080b81610c9b565b6105878383610d46565b6001600160a01b03811660009081527f7dcd276b72586271b4623598c6b3ecb5f3594881d1da5ce0d28e8f8adbf67787602052604081205460ff161561085d57506001919050565b6040517f1aee145f0000000000000000000000000000000000000000000000000000000081526001600160a01b0383166004820152602401610606565b6001600160a01b0383166109155760405162461bcd60e51b8152602060048201526024808201527f45524332303a20617070726f76652066726f6d20746865207a65726f2061646460448201527f72657373000000000000000000000000000000000000000000000000000000006064820152608401610606565b6001600160a01b0382166109915760405162461bcd60e51b815260206004820152602260248201527f45524332303a20617070726f766520746f20746865207a65726f20616464726560448201527f73730000000000000000000000000000000000000000000000000000000000006064820152608401610606565b6001600160a01b0383811660008181526002602090815260408083209487168084529482529182902085905590518481527f8c5be1e5ebec7d5bd14f71427d1e84f3dd0314c0f7b2291e5b200ac8c7c3b925910160405180910390a3505050565b6001600160a01b038381166000908152600260209081526040808320938616835292905220546000198114610a7e5781811015610a715760405162461bcd60e51b815260206004820152601d60248201527f45524332303a20696e73756666696369656e7420616c6c6f77616e63650000006044820152606401610606565b610a7e848484840361089a565b50505050565b6001600160a01b038316610b005760405162461bcd60e51b815260206004820152602560248201527f45524332303a207472616e736665722066726f6d20746865207a65726f20616460448201527f64726573730000000000000000000000000000000000000000000000000000006064820152608401610606565b6001600160a01b038216610b7c5760405162461bcd60e51b815260206004820152602360248201527f45524332303a207472616e7366657220746f20746865207a65726f206164647260448201527f65737300000000000000000000000000000000000000000000000000000000006064820152608401610606565b6001600160a01b03831660009081526001602052604090205481811015610c0b5760405162461bcd60e51b815260206004820152602660248201527f45524332303a207472616e7366657220616d6f756e742065786365656473206260448201527f616c616e636500000000000000000000000000000000000000000000000000006064820152608401610606565b6001600160a01b03808516600090815260016020526040808220858503905591851681529081208054849290610c4290849061147e565b92505081905550826001600160a01b0316846001600160a01b03167fddf252ad1be2c89b69c2b068fc378daa952ba7f163c4a11628f55a4df523b3ef84604051610c8e91815260200190565b60405180910390a3610a7e565b610ca58133611029565b50565b6000828152602081815260408083206001600160a01b038516845290915290205460ff16610619576000828152602081815260408083206001600160a01b03851684529091529020805460ff19166001179055610d023390565b6001600160a01b0316816001600160a01b0316837f2f8788117e7eff1d82e926ec794901d17c78024a50270940304540a733656f0d60405160405180910390a45050565b6000828152602081815260408083206001600160a01b038516845290915290205460ff1615610619576000828152602081815260408083206001600160a01b0385168085529252808320805460ff1916905551339285917ff6391f5c32d9c69d2a47ea670b442974b53935d1edc7fd64eb21e047a839171b9190a45050565b6001600160a01b038216610e1b5760405162461bcd60e51b815260206004820152601f60248201527f45524332303a206d696e7420746f20746865207a65726f2061646472657373006044820152606401610606565b8060036000828254610e2d919061147e565b90915550506001600160a01b03821660009081526001602052604081208054839290610e5a90849061147e565b90915550506040518181526001600160a01b038316906000907fddf252ad1be2c89b69c2b068fc378daa952ba7f163c4a11628f55a4df523b3ef9060200160405180910390a35050565b6001600160a01b038216610f205760405162461bcd60e51b815260206004820152602160248201527f45524332303a206275726e2066726f6d20746865207a65726f2061646472657360448201527f73000000000000000000000000000000000000000000000000000000000000006064820152608401610606565b6001600160a01b03821660009081526001602052604090205481811015610faf5760405162461bcd60e51b815260206004820152602260248201527f45524332303a206275726e20616d6f756e7420657863656564732062616c616e60448201527f63650000000000000000000000000000000000000000000000000000000000006064820152608401610606565b6001600160a01b0383166000908152600160205260408120838303905560038054849290610fde908490611491565b90915550506040518281526000906001600160a01b038516907fddf252ad1be2c89b69c2b068fc378daa952ba7f163c4a11628f55a4df523b3ef9060200160405180910390a3505050565b6000828152602081815260408083206001600160a01b038516845290915290205460ff1661061957611065816001600160a01b031660146110a7565b6110708360206110a7565b6040516020016110819291906114a4565b60408051601f198184030181529082905262461bcd60e51b8252610606916004016112f5565b606060006110b6836002611525565b6110c190600261147e565b67ffffffffffffffff8111156110d9576110d961153c565b6040519080825280601f01601f191660200182016040528015611103576020820181803683370190505b5090507f30000000000000000000000000000000000000000000000000000000000000008160008151811061113a5761113a611552565b60200101906001600160f81b031916908160001a9053507f78000000000000000000000000000000000000000000000000000000000000008160018151811061118557611185611552565b60200101906001600160f81b031916908160001a90535060006111a9846002611525565b6111b490600161147e565b90505b6001811115611239577f303132333435363738396162636465660000000000000000000000000000000085600f16601081106111f5576111f5611552565b1a60f81b82828151811061120b5761120b611552565b60200101906001600160f81b031916908160001a90535060049490941c9361123281611568565b90506111b7565b5083156112885760405162461bcd60e51b815260206004820181905260248201527f537472696e67733a20686578206c656e67746820696e73756666696369656e746044820152606401610606565b9392505050565b6000602082840312156112a157600080fd5b81357fffffffff000000000000000000000000000000000000000000000000000000008116811461128857600080fd5b60005b838110156112ec5781810151838201526020016112d4565b50506000910152565b60208152600082518060208401526113148160408501602087016112d1565b601f01601f19169190910160400192915050565b80356001600160a01b038116811461133f57600080fd5b919050565b6000806040838503121561135757600080fd5b61136083611328565b946020939093013593505050565b60008060006060848603121561138357600080fd5b61138c84611328565b925061139a60208501611328565b9150604084013590509250925092565b6000602082840312156113bc57600080fd5b5035919050565b600080604083850312156113d657600080fd5b823591506113e660208401611328565b90509250929050565b60006020828403121561140157600080fd5b61128882611328565b6000806040838503121561141d57600080fd5b61142683611328565b91506113e660208401611328565b600181811c9082168061144857607f821691505b6020821081036107dc57634e487b7160e01b600052602260045260246000fd5b634e487b7160e01b600052601160045260246000fd5b8082018082111561048e5761048e611468565b8181038181111561048e5761048e611468565b7f416363657373436f6e74726f6c3a206163636f756e74200000000000000000008152600083516114dc8160178501602088016112d1565b7f206973206d697373696e6720726f6c652000000000000000000000000000000060179184019182015283516115198160288401602088016112d1565b01602801949350505050565b808202811582820484141761048e5761048e611468565b634e487b7160e01b600052604160045260246000fd5b634e487b7160e01b600052603260045260246000fd5b60008161157757611577611468565b50600019019056fea2646970667358221220f712b28d1db733ec3408adf5512cbe410251a793cf4b253f8bf3e163173f068864736f6c63430008140033","linkReferences":{}},"methodIdentifiers":{"BRIDGE_ROLE()":"b5bfddea","DEFAULT_ADMIN_ROLE()":"a217fddf","OWNER_ROLE()":"e58378bb","allowance(address,address)":"dd62ed3e","approve(address,uint256)":"095ea7b3","balanceOf(address)":"70a08231","burn(address,uint256)":"9dc29fac","decimals()":"313ce567","decreaseAllowance(address,uint256)":"a457c2d7","getRoleAdmin(bytes32)":"248a9ca3","grantBridgeRole(address)":"a5e99b8e","grantRole(bytes32,address)":"2f2ff15d","hasBridgeRole(address)":"ea134071","hasRole(bytes32,address)":"91d14854","increaseAllowance(address,uint256)":"39509351","mint(address,uint256)":"40c10f19","name()":"06fdde03","renounceRole(bytes32,address)":"36568abe","revokeRole(bytes32,address)":"d547741f","supportsInterface(bytes4)":"01ffc9a7","symbol()":"95d89b41","totalSupply()":"18160ddd","transfer(address,uint256)":"a9059cbb","transferFrom(address,address,uint256)":"23b872dd"},"id":9}